{
  "contractName": "CoffeeFriend",
  "abi": [
    {
      "inputs": [
        {
          "internalType": "address",
          "name": "initialOwner",
          "type": "address"
        }
      ],
      "stateMutability": "nonpayable",
      "type": "constructor"
    },
    {
      "inputs": [],
      "name": "ERC721EnumerableForbiddenBatchMint",
      "type": "error"
    },
    {
      "inputs": [
        {
          "internalType": "address",
          "name": "sender",
          "type": "address"
        },
        {
          "internalType": "uint256",
          "name": "tokenId",
          "type": "uint256"
        },
        {
          "internalType": "address",
          "name": "owner",
          "type": "address"
        }
      ],
      "name": "ERC721IncorrectOwner",
      "type": "error"
    },
    {
      "inputs": [
        {
          "internalType": "address",
          "name": "operator",
          "type": "address"
        },
        {
          "internalType": "uint256",
          "name": "tokenId",
          "type": "uint256"
        }
      ],
      "name": "ERC721InsufficientApproval",
      "type": "error"
    },
    {
      "inputs": [
        {
          "internalType": "address",
          "name": "approver",
          "type": "address"
        }
      ],
      "name": "ERC721InvalidApprover",
      "type": "error"
    },
    {
      "inputs": [
        {
          "internalType": "address",
          "name": "operator",
          "type": "address"
        }
      ],
      "name": "ERC721InvalidOperator",
      "type": "error"
    },
    {
      "inputs": [
        {
          "internalType": "address",
          "name": "owner",
          "type": "address"
        }
      ],
      "name": "ERC721InvalidOwner",
      "type": "error"
    },
    {
      "inputs": [
        {
          "internalType": "address",
          "name": "receiver",
          "type": "address"
        }
      ],
      "name": "ERC721InvalidReceiver",
      "type": "error"
    },
    {
      "inputs": [
        {
          "internalType": "address",
          "name": "sender",
          "type": "address"
        }
      ],
      "name": "ERC721InvalidSender",
      "type": "error"
    },
    {
      "inputs": [
        {
          "internalType": "uint256",
          "name": "tokenId",
          "type": "uint256"
        }
      ],
      "name": "ERC721NonexistentToken",
      "type": "error"
    },
    {
      "inputs": [
        {
          "internalType": "address",
          "name": "owner",
          "type": "address"
        },
        {
          "internalType": "uint256",
          "name": "index",
          "type": "uint256"
        }
      ],
      "name": "ERC721OutOfBoundsIndex",
      "type": "error"
    },
    {
      "inputs": [
        {
          "internalType": "address",
          "name": "owner",
          "type": "address"
        }
      ],
      "name": "OwnableInvalidOwner",
      "type": "error"
    },
    {
      "inputs": [
        {
          "internalType": "address",
          "name": "account",
          "type": "address"
        }
      ],
      "name": "OwnableUnauthorizedAccount",
      "type": "error"
    },
    {
      "anonymous": false,
      "inputs": [
        {
          "indexed": true,
          "internalType": "address",
          "name": "owner",
          "type": "address"
        },
        {
          "indexed": true,
          "internalType": "address",
          "name": "approved",
          "type": "address"
        },
        {
          "indexed": true,
          "internalType": "uint256",
          "name": "tokenId",
          "type": "uint256"
        }
      ],
      "name": "Approval",
      "type": "event"
    },
    {
      "anonymous": false,
      "inputs": [
        {
          "indexed": true,
          "internalType": "address",
          "name": "owner",
          "type": "address"
        },
        {
          "indexed": true,
          "internalType": "address",
          "name": "operator",
          "type": "address"
        },
        {
          "indexed": false,
          "internalType": "bool",
          "name": "approved",
          "type": "bool"
        }
      ],
      "name": "ApprovalForAll",
      "type": "event"
    },
    {
      "anonymous": false,
      "inputs": [
        {
          "indexed": true,
          "internalType": "address",
          "name": "previousOwner",
          "type": "address"
        },
        {
          "indexed": true,
          "internalType": "address",
          "name": "newOwner",
          "type": "address"
        }
      ],
      "name": "OwnershipTransferred",
      "type": "event"
    },
    {
      "anonymous": false,
      "inputs": [
        {
          "indexed": true,
          "internalType": "address",
          "name": "from",
          "type": "address"
        },
        {
          "indexed": true,
          "internalType": "address",
          "name": "to",
          "type": "address"
        },
        {
          "indexed": true,
          "internalType": "uint256",
          "name": "tokenId",
          "type": "uint256"
        }
      ],
      "name": "Transfer",
      "type": "event"
    },
    {
      "inputs": [
        {
          "internalType": "address",
          "name": "to",
          "type": "address"
        },
        {
          "internalType": "uint256",
          "name": "tokenId",
          "type": "uint256"
        }
      ],
      "name": "approve",
      "outputs": [],
      "stateMutability": "nonpayable",
      "type": "function"
    },
    {
      "inputs": [
        {
          "internalType": "address",
          "name": "owner",
          "type": "address"
        }
      ],
      "name": "balanceOf",
      "outputs": [
        {
          "internalType": "uint256",
          "name": "",
          "type": "uint256"
        }
      ],
      "stateMutability": "view",
      "type": "function",
      "constant": true
    },
    {
      "inputs": [
        {
          "internalType": "uint256",
          "name": "tokenId",
          "type": "uint256"
        }
      ],
      "name": "getApproved",
      "outputs": [
        {
          "internalType": "address",
          "name": "",
          "type": "address"
        }
      ],
      "stateMutability": "view",
      "type": "function",
      "constant": true
    },
    {
      "inputs": [
        {
          "internalType": "address",
          "name": "owner",
          "type": "address"
        },
        {
          "internalType": "address",
          "name": "operator",
          "type": "address"
        }
      ],
      "name": "isApprovedForAll",
      "outputs": [
        {
          "internalType": "bool",
          "name": "",
          "type": "bool"
        }
      ],
      "stateMutability": "view",
      "type": "function",
      "constant": true
    },
    {
      "inputs": [],
      "name": "name",
      "outputs": [
        {
          "internalType": "string",
          "name": "",
          "type": "string"
        }
      ],
      "stateMutability": "view",
      "type": "function",
      "constant": true
    },
    {
      "inputs": [],
      "name": "owner",
      "outputs": [
        {
          "internalType": "address",
          "name": "",
          "type": "address"
        }
      ],
      "stateMutability": "view",
      "type": "function",
      "constant": true
    },
    {
      "inputs": [
        {
          "internalType": "uint256",
          "name": "tokenId",
          "type": "uint256"
        }
      ],
      "name": "ownerOf",
      "outputs": [
        {
          "internalType": "address",
          "name": "",
          "type": "address"
        }
      ],
      "stateMutability": "view",
      "type": "function",
      "constant": true
    },
    {
      "inputs": [],
      "name": "renounceOwnership",
      "outputs": [],
      "stateMutability": "nonpayable",
      "type": "function"
    },
    {
      "inputs": [
        {
          "internalType": "address",
          "name": "from",
          "type": "address"
        },
        {
          "internalType": "address",
          "name": "to",
          "type": "address"
        },
        {
          "internalType": "uint256",
          "name": "tokenId",
          "type": "uint256"
        }
      ],
      "name": "safeTransferFrom",
      "outputs": [],
      "stateMutability": "nonpayable",
      "type": "function"
    },
    {
      "inputs": [
        {
          "internalType": "address",
          "name": "from",
          "type": "address"
        },
        {
          "internalType": "address",
          "name": "to",
          "type": "address"
        },
        {
          "internalType": "uint256",
          "name": "tokenId",
          "type": "uint256"
        },
        {
          "internalType": "bytes",
          "name": "data",
          "type": "bytes"
        }
      ],
      "name": "safeTransferFrom",
      "outputs": [],
      "stateMutability": "nonpayable",
      "type": "function"
    },
    {
      "inputs": [
        {
          "internalType": "address",
          "name": "operator",
          "type": "address"
        },
        {
          "internalType": "bool",
          "name": "approved",
          "type": "bool"
        }
      ],
      "name": "setApprovalForAll",
      "outputs": [],
      "stateMutability": "nonpayable",
      "type": "function"
    },
    {
      "inputs": [],
      "name": "symbol",
      "outputs": [
        {
          "internalType": "string",
          "name": "",
          "type": "string"
        }
      ],
      "stateMutability": "view",
      "type": "function",
      "constant": true
    },
    {
      "inputs": [
        {
          "internalType": "uint256",
          "name": "index",
          "type": "uint256"
        }
      ],
      "name": "tokenByIndex",
      "outputs": [
        {
          "internalType": "uint256",
          "name": "",
          "type": "uint256"
        }
      ],
      "stateMutability": "view",
      "type": "function",
      "constant": true
    },
    {
      "inputs": [
        {
          "internalType": "address",
          "name": "owner",
          "type": "address"
        },
        {
          "internalType": "uint256",
          "name": "index",
          "type": "uint256"
        }
      ],
      "name": "tokenOfOwnerByIndex",
      "outputs": [
        {
          "internalType": "uint256",
          "name": "",
          "type": "uint256"
        }
      ],
      "stateMutability": "view",
      "type": "function",
      "constant": true
    },
    {
      "inputs": [],
      "name": "totalSupply",
      "outputs": [
        {
          "internalType": "uint256",
          "name": "",
          "type": "uint256"
        }
      ],
      "stateMutability": "view",
      "type": "function",
      "constant": true
    },
    {
      "inputs": [
        {
          "internalType": "address",
          "name": "from",
          "type": "address"
        },
        {
          "internalType": "address",
          "name": "to",
          "type": "address"
        },
        {
          "internalType": "uint256",
          "name": "tokenId",
          "type": "uint256"
        }
      ],
      "name": "transferFrom",
      "outputs": [],
      "stateMutability": "nonpayable",
      "type": "function"
    },
    {
      "inputs": [
        {
          "internalType": "address",
          "name": "newOwner",
          "type": "address"
        }
      ],
      "name": "transferOwnership",
      "outputs": [],
      "stateMutability": "nonpayable",
      "type": "function"
    },
    {
      "inputs": [],
      "name": "mintCoffeeNFT",
      "outputs": [],
      "stateMutability": "nonpayable",
      "type": "function"
    },
    {
      "inputs": [],
      "name": "completeCoffeeBuyWithEth",
      "outputs": [],
      "stateMutability": "payable",
      "type": "function",
      "payable": true
    },
    {
      "inputs": [
        {
          "internalType": "address",
          "name": "account",
          "type": "address"
        },
        {
          "internalType": "uint256",
          "name": "amount",
          "type": "uint256"
        }
      ],
      "name": "addCoffeePoints",
      "outputs": [],
      "stateMutability": "nonpayable",
      "type": "function"
    },
    {
      "inputs": [
        {
          "internalType": "address",
          "name": "account",
          "type": "address"
        }
      ],
      "name": "getCoffeePoints",
      "outputs": [
        {
          "internalType": "uint256",
          "name": "",
          "type": "uint256"
        }
      ],
      "stateMutability": "view",
      "type": "function",
      "constant": true
    },
    {
      "inputs": [
        {
          "internalType": "uint256",
          "name": "tokenId",
          "type": "uint256"
        }
      ],
      "name": "generateSVG",
      "outputs": [
        {
          "internalType": "string",
          "name": "",
          "type": "string"
        }
      ],
      "stateMutability": "pure",
      "type": "function",
      "constant": true
    },
    {
      "inputs": [
        {
          "internalType": "uint256",
          "name": "tokenId",
          "type": "uint256"
        }
      ],
      "name": "tokenURI",
      "outputs": [
        {
          "internalType": "string",
          "name": "",
          "type": "string"
        }
      ],
      "stateMutability": "pure",
      "type": "function",
      "constant": true
    },
    {
      "inputs": [
        {
          "internalType": "bytes4",
          "name": "interfaceId",
          "type": "bytes4"
        }
      ],
      "name": "supportsInterface",
      "outputs": [
        {
          "internalType": "bool",
          "name": "",
          "type": "bool"
        }
      ],
      "stateMutability": "view",
      "type": "function",
      "constant": true
    },
    {
      "inputs": [
        {
          "internalType": "address",
          "name": "account",
          "type": "address"
        }
      ],
      "name": "getTokens",
      "outputs": [
        {
          "internalType": "uint256[]",
          "name": "",
          "type": "uint256[]"
        }
      ],
      "stateMutability": "view",
      "type": "function",
      "constant": true
    }
  ],
  "bytecode": "0x608060405234801562000010575f80fd5b506040516200508138038062005081833981810160405281019062000036919062000283565b806040518060400160405280600c81526020017f436f66666565467269656e6400000000000000000000000000000000000000008152506040518060400160405280600c81526020017f436f66666565467269656e640000000000000000000000000000000000000000815250815f9081620000b3919062000517565b508060019081620000c5919062000517565b5050505f73ffffffffffffffffffffffffffffffffffffffff168173ffffffffffffffffffffffffffffffffffffffff16036200013b575f6040517f1e4fbdf70000000000000000000000000000000000000000000000000000000081526004016200013291906200060c565b60405180910390fd5b6200014c816200015b60201b60201c565b505f600c819055505062000627565b5f600a5f9054906101000a900473ffffffffffffffffffffffffffffffffffffffff16905081600a5f6101000a81548173ffffffffffffffffffffffffffffffffffffffff021916908373ffffffffffffffffffffffffffffffffffffffff1602179055508173ffffffffffffffffffffffffffffffffffffffff168173ffffffffffffffffffffffffffffffffffffffff167f8be0079c531659141344cd1fd0a4f28419497f9722a3daafe3b4186f6b6457e060405160405180910390a35050565b5f80fd5b5f73ffffffffffffffffffffffffffffffffffffffff82169050919050565b5f6200024d8262000222565b9050919050565b6200025f8162000241565b81146200026a575f80fd5b50565b5f815190506200027d8162000254565b92915050565b5f602082840312156200029b576200029a6200021e565b5b5f620002aa848285016200026d565b91505092915050565b5f81519050919050565b7f4e487b71000000000000000000000000000000000000000000000000000000005f52604160045260245ffd5b7f4e487b71000000000000000000000000000000000000000000000000000000005f52602260045260245ffd5b5f60028204905060018216806200032f57607f821691505b602082108103620003455762000344620002ea565b5b50919050565b5f819050815f5260205f209050919050565b5f6020601f8301049050919050565b5f82821b905092915050565b5f60088302620003a97fffffffffffffffffffffffffffffffffffffffffffffffffffffffffffffffff826200036c565b620003b586836200036c565b95508019841693508086168417925050509392505050565b5f819050919050565b5f819050919050565b5f620003ff620003f9620003f384620003cd565b620003d6565b620003cd565b9050919050565b5f819050919050565b6200041a83620003df565b62000432620004298262000406565b84845462000378565b825550505050565b5f90565b620004486200043a565b620004558184846200040f565b505050565b5b818110156200047c57620004705f826200043e565b6001810190506200045b565b5050565b601f821115620004cb5762000495816200034b565b620004a0846200035d565b81016020851015620004b0578190505b620004c8620004bf856200035d565b8301826200045a565b50505b505050565b5f82821c905092915050565b5f620004ed5f1984600802620004d0565b1980831691505092915050565b5f620005078383620004dc565b9150826002028217905092915050565b6200052282620002b3565b67ffffffffffffffff8111156200053e576200053d620002bd565b5b6200054a825462000317565b6200055782828562000480565b5f60209050601f8311600181146200058d575f841562000578578287015190505b620005848582620004fa565b865550620005f3565b601f1984166200059d866200034b565b5f5b82811015620005c6578489015182556001820191506020850194506020810190506200059f565b86831015620005e65784890151620005e2601f891682620004dc565b8355505b6001600288020188555050505b505050505050565b620006068162000241565b82525050565b5f602082019050620006215f830184620005fb565b92915050565b614a4c80620006355f395ff3fe608060405260043610610164575f3560e01c80634f6ccce7116100d057806395d89b4111610089578063c87b56dd11610063578063c87b56dd1461052a578063e985e9c514610566578063ebdfac81146105a2578063f2fde38b146105ca57610164565b806395d89b41146104b0578063a22cb465146104da578063b88d4fde1461050257610164565b80634f6ccce7146103805780636352211e146103bc5780636dcee4ca146103f857806370a0823114610434578063715018a6146104705780638da5cb5b1461048657610164565b806318160ddd1161012257806318160ddd1461027857806323b872dd146102a25780632f745c59146102ca57806342842e0e14610306578063450efe211461032e5780634e4ddd8a1461036a57610164565b8062af64cf1461016857806301ffc9a71461017257806306fdde03146101ae578063081812fc146101d8578063095ea7b31461021457806315c0ebe21461023c575b5f80fd5b6101706105f2565b005b34801561017d575f80fd5b5061019860048036038101906101939190612541565b610691565b6040516101a59190612586565b60405180910390f35b3480156101b9575f80fd5b506101c26106a2565b6040516101cf9190612629565b60405180910390f35b3480156101e3575f80fd5b506101fe60048036038101906101f9919061267c565b610731565b60405161020b91906126e6565b60405180910390f35b34801561021f575f80fd5b5061023a60048036038101906102359190612729565b61074c565b005b348015610247575f80fd5b50610262600480360381019061025d9190612767565b610762565b60405161026f91906127a1565b60405180910390f35b348015610283575f80fd5b5061028c6107a8565b60405161029991906127a1565b60405180910390f35b3480156102ad575f80fd5b506102c860048036038101906102c391906127ba565b6107b4565b005b3480156102d5575f80fd5b506102f060048036038101906102eb9190612729565b6108b3565b6040516102fd91906127a1565b60405180910390f35b348015610311575f80fd5b5061032c600480360381019061032791906127ba565b610957565b005b348015610339575f80fd5b50610354600480360381019061034f9190612767565b610976565b60405161036191906128c1565b60405180910390f35b348015610375575f80fd5b5061037e610a26565b005b34801561038b575f80fd5b506103a660048036038101906103a1919061267c565b610b59565b6040516103b391906127a1565b60405180910390f35b3480156103c7575f80fd5b506103e260048036038101906103dd919061267c565b610bcb565b6040516103ef91906126e6565b60405180910390f35b348015610403575f80fd5b5061041e6004803603810190610419919061267c565b610bdc565b60405161042b9190612629565b60405180910390f35b34801561043f575f80fd5b5061045a60048036038101906104559190612767565b610c12565b60405161046791906127a1565b60405180910390f35b34801561047b575f80fd5b50610484610cc8565b005b348015610491575f80fd5b5061049a610cdb565b6040516104a791906126e6565b60405180910390f35b3480156104bb575f80fd5b506104c4610d03565b6040516104d19190612629565b60405180910390f35b3480156104e5575f80fd5b5061050060048036038101906104fb919061290b565b610d93565b005b34801561050d575f80fd5b5061052860048036038101906105239190612a75565b610da9565b005b348015610535575f80fd5b50610550600480360381019061054b919061267c565b610dc6565b60405161055d9190612629565b60405180910390f35b348015610571575f80fd5b5061058c60048036038101906105879190612af5565b610e68565b6040516105999190612586565b60405180910390f35b3480156105ad575f80fd5b506105c860048036038101906105c39190612729565b610ef6565b005b3480156105d5575f80fd5b506105f060048036038101906105eb9190612767565b610f55565b005b6602a106ad224000341461063b576040517f08c379a000000000000000000000000000000000000000000000000000000000815260040161063290612ba3565b60405180910390fd5b6001600b5f3373ffffffffffffffffffffffffffffffffffffffff1673ffffffffffffffffffffffffffffffffffffffff1681526020019081526020015f205f8282546106889190612bee565b92505081905550565b5f61069b82610fd9565b9050919050565b60605f80546106b090612c4e565b80601f01602080910402602001604051908101604052809291908181526020018280546106dc90612c4e565b80156107275780601f106106fe57610100808354040283529160200191610727565b820191905f5260205f20905b81548152906001019060200180831161070a57829003601f168201915b5050505050905090565b5f61073b82611052565b50610745826110d8565b9050919050565b61075e8282610759611111565b611118565b5050565b5f600b5f8373ffffffffffffffffffffffffffffffffffffffff1673ffffffffffffffffffffffffffffffffffffffff1681526020019081526020015f20549050919050565b5f600880549050905090565b5f73ffffffffffffffffffffffffffffffffffffffff168273ffffffffffffffffffffffffffffffffffffffff1603610824575f6040517f64a0ae9200000000000000000000000000000000000000000000000000000000815260040161081b91906126e6565b60405180910390fd5b5f6108378383610832611111565b61112a565b90508373ffffffffffffffffffffffffffffffffffffffff168173ffffffffffffffffffffffffffffffffffffffff16146108ad578382826040517f64283d7b0000000000000000000000000000000000000000000000000000000081526004016108a493929190612c7e565b60405180910390fd5b50505050565b5f6108bd83610c12565b82106109025782826040517fa57d13dc0000000000000000000000000000000000000000000000000000000081526004016108f9929190612cb3565b60405180910390fd5b60065f8473ffffffffffffffffffffffffffffffffffffffff1673ffffffffffffffffffffffffffffffffffffffff1681526020019081526020015f205f8381526020019081526020015f2054905092915050565b61097183838360405180602001604052805f815250610da9565b505050565b60605f61098283610c12565b90505f8167ffffffffffffffff81111561099f5761099e612951565b5b6040519080825280602002602001820160405280156109cd5781602001602082028036833780820191505090505b5090505f5b82811015610a1b575f6109e586836108b3565b9050808383815181106109fb576109fa612cda565b5b602002602001018181525050508080610a1390612d07565b9150506109d2565b508092505050919050565b600a600b5f3373ffffffffffffffffffffffffffffffffffffffff1673ffffffffffffffffffffffffffffffffffffffff1681526020019081526020015f20541015610aa7576040517f08c379a0000000000000000000000000000000000000000000000000000000008152600401610a9e90612d98565b60405180910390fd5b600a600b5f3373ffffffffffffffffffffffffffffffffffffffff1673ffffffffffffffffffffffffffffffffffffffff1681526020019081526020015f2054610af19190612db6565b600b5f3373ffffffffffffffffffffffffffffffffffffffff1673ffffffffffffffffffffffffffffffffffffffff1681526020019081526020015f20819055506001600c5f828254610b449190612bee565b92505081905550610b5733600c5461113f565b565b5f610b626107a8565b8210610ba7575f826040517fa57d13dc000000000000000000000000000000000000000000000000000000008152600401610b9e929190612cb3565b60405180910390fd5b60088281548110610bbb57610bba612cda565b5b905f5260205f2001549050919050565b5f610bd582611052565b9050919050565b60605f610be883611232565b604051602001610bf891906143ff565b604051602081830303815290604052905080915050919050565b5f8073ffffffffffffffffffffffffffffffffffffffff168273ffffffffffffffffffffffffffffffffffffffff1603610c83575f6040517f89c62b64000000000000000000000000000000000000000000000000000000008152600401610c7a91906126e6565b60405180910390fd5b60035f8373ffffffffffffffffffffffffffffffffffffffff1673ffffffffffffffffffffffffffffffffffffffff1681526020019081526020015f20549050919050565b610cd06112fc565b610cd95f611383565b565b5f600a5f9054906101000a900473ffffffffffffffffffffffffffffffffffffffff16905090565b606060018054610d1290612c4e565b80601f0160208091040260200160405190810160405280929190818152602001828054610d3e90612c4e565b8015610d895780601f10610d6057610100808354040283529160200191610d89565b820191905f5260205f20905b815481529060010190602001808311610d6c57829003601f168201915b5050505050905090565b610da5610d9e611111565b8383611446565b5050565b610db48484846107b4565b610dc0848484846115af565b50505050565b60605f610dd283610bdc565b90505f610dde82611761565b604051602001610dee9190614480565b60405160208183030381529060405290505f610e3c610e0c86611232565b610e1587611232565b84604051602001610e289392919061473d565b604051602081830303815290604052611761565b905080604051602001610e4f919061480f565b6040516020818303038152906040529350505050919050565b5f60055f8473ffffffffffffffffffffffffffffffffffffffff1673ffffffffffffffffffffffffffffffffffffffff1681526020019081526020015f205f8373ffffffffffffffffffffffffffffffffffffffff1673ffffffffffffffffffffffffffffffffffffffff1681526020019081526020015f205f9054906101000a900460ff16905092915050565b610efe6112fc565b80600b5f8473ffffffffffffffffffffffffffffffffffffffff1673ffffffffffffffffffffffffffffffffffffffff1681526020019081526020015f205f828254610f4a9190612bee565b925050819055505050565b610f5d6112fc565b5f73ffffffffffffffffffffffffffffffffffffffff168173ffffffffffffffffffffffffffffffffffffffff1603610fcd575f6040517f1e4fbdf7000000000000000000000000000000000000000000000000000000008152600401610fc491906126e6565b60405180910390fd5b610fd681611383565b50565b5f7f780e9d63000000000000000000000000000000000000000000000000000000007bffffffffffffffffffffffffffffffffffffffffffffffffffffffff1916827bffffffffffffffffffffffffffffffffffffffffffffffffffffffff1916148061104b575061104a826118ce565b5b9050919050565b5f8061105d836119af565b90505f73ffffffffffffffffffffffffffffffffffffffff168173ffffffffffffffffffffffffffffffffffffffff16036110cf57826040517f7e2732890000000000000000000000000000000000000000000000000000000081526004016110c691906127a1565b60405180910390fd5b80915050919050565b5f60045f8381526020019081526020015f205f9054906101000a900473ffffffffffffffffffffffffffffffffffffffff169050919050565b5f33905090565b61112583838360016119e8565b505050565b5f611136848484611ba7565b90509392505050565b5f73ffffffffffffffffffffffffffffffffffffffff168273ffffffffffffffffffffffffffffffffffffffff16036111af575f6040517f64a0ae920000000000000000000000000000000000000000000000000000000081526004016111a691906126e6565b60405180910390fd5b5f6111bb83835f61112a565b90505f73ffffffffffffffffffffffffffffffffffffffff168173ffffffffffffffffffffffffffffffffffffffff161461122d575f6040517f73c6ac6e00000000000000000000000000000000000000000000000000000000815260040161122491906126e6565b60405180910390fd5b505050565b60605f600161124084611cc1565b0190505f8167ffffffffffffffff81111561125e5761125d612951565b5b6040519080825280601f01601f1916602001820160405280156112905781602001600182028036833780820191505090505b5090505f82602001820190505b6001156112f1578080600190039150507f3031323334353637383961626364656600000000000000000000000000000000600a86061a8153600a85816112e6576112e5614830565b5b0494505f850361129d575b819350505050919050565b611304611111565b73ffffffffffffffffffffffffffffffffffffffff16611322610cdb565b73ffffffffffffffffffffffffffffffffffffffff161461138157611345611111565b6040517f118cdaa700000000000000000000000000000000000000000000000000000000815260040161137891906126e6565b60405180910390fd5b565b5f600a5f9054906101000a900473ffffffffffffffffffffffffffffffffffffffff16905081600a5f6101000a81548173ffffffffffffffffffffffffffffffffffffffff021916908373ffffffffffffffffffffffffffffffffffffffff1602179055508173ffffffffffffffffffffffffffffffffffffffff168173ffffffffffffffffffffffffffffffffffffffff167f8be0079c531659141344cd1fd0a4f28419497f9722a3daafe3b4186f6b6457e060405160405180910390a35050565b5f73ffffffffffffffffffffffffffffffffffffffff168273ffffffffffffffffffffffffffffffffffffffff16036114b657816040517f5b08ba180000000000000000000000000000000000000000000000000000000081526004016114ad91906126e6565b60405180910390fd5b8060055f8573ffffffffffffffffffffffffffffffffffffffff1673ffffffffffffffffffffffffffffffffffffffff1681526020019081526020015f205f8473ffffffffffffffffffffffffffffffffffffffff1673ffffffffffffffffffffffffffffffffffffffff1681526020019081526020015f205f6101000a81548160ff0219169083151502179055508173ffffffffffffffffffffffffffffffffffffffff168373ffffffffffffffffffffffffffffffffffffffff167f17307eab39ab6107e8899845ad3d59bd9653f200f220920489ca2b5937696c31836040516115a29190612586565b60405180910390a3505050565b5f8373ffffffffffffffffffffffffffffffffffffffff163b111561175b578273ffffffffffffffffffffffffffffffffffffffff1663150b7a026115f2611111565b8685856040518563ffffffff1660e01b815260040161161494939291906148af565b6020604051808303815f875af192505050801561164f57506040513d601f19601f8201168201806040525081019061164c919061490d565b60015b6116d0573d805f811461167d576040519150601f19603f3d011682016040523d82523d5f602084013e611682565b606091505b505f8151036116c857836040517f64a0ae920000000000000000000000000000000000000000000000000000000081526004016116bf91906126e6565b60405180910390fd5b805181602001fd5b63150b7a0260e01b7bffffffffffffffffffffffffffffffffffffffffffffffffffffffff1916817bffffffffffffffffffffffffffffffffffffffffffffffffffffffff19161461175957836040517f64a0ae9200000000000000000000000000000000000000000000000000000000815260040161175091906126e6565b60405180910390fd5b505b50505050565b60605f8251036117815760405180602001604052805f81525090506118c9565b5f6040518060600160405280604081526020016149d76040913990505f6003600285516117ae9190612bee565b6117b89190614938565b60046117c49190614968565b67ffffffffffffffff8111156117dd576117dc612951565b5b6040519080825280601f01601f19166020018201604052801561180f5781602001600182028036833780820191505090505b509050600182016020820185865187016020810180515f82525b82841015611884576003840193508351603f8160121c168701518653600186019550603f81600c1c168701518653600186019550603f8160061c168701518653600186019550603f8116870151865360018601955050611829565b80825260038a5106600181146118a157600281146118b4576118bc565b603d6001870353603d60028703536118bc565b603d60018703535b5050505050505080925050505b919050565b5f7f80ac58cd000000000000000000000000000000000000000000000000000000007bffffffffffffffffffffffffffffffffffffffffffffffffffffffff1916827bffffffffffffffffffffffffffffffffffffffffffffffffffffffff1916148061199857507f5b5e139f000000000000000000000000000000000000000000000000000000007bffffffffffffffffffffffffffffffffffffffffffffffffffffffff1916827bffffffffffffffffffffffffffffffffffffffffffffffffffffffff1916145b806119a857506119a782611e12565b5b9050919050565b5f60025f8381526020019081526020015f205f9054906101000a900473ffffffffffffffffffffffffffffffffffffffff169050919050565b8080611a2057505f73ffffffffffffffffffffffffffffffffffffffff168273ffffffffffffffffffffffffffffffffffffffff1614155b15611b52575f611a2f84611052565b90505f73ffffffffffffffffffffffffffffffffffffffff168373ffffffffffffffffffffffffffffffffffffffff1614158015611a9957508273ffffffffffffffffffffffffffffffffffffffff168173ffffffffffffffffffffffffffffffffffffffff1614155b8015611aac5750611aaa8184610e68565b155b15611aee57826040517fa9fbf51f000000000000000000000000000000000000000000000000000000008152600401611ae591906126e6565b60405180910390fd5b8115611b5057838573ffffffffffffffffffffffffffffffffffffffff168273ffffffffffffffffffffffffffffffffffffffff167f8c5be1e5ebec7d5bd14f71427d1e84f3dd0314c0f7b2291e5b200ac8c7c3b92560405160405180910390a45b505b8360045f8581526020019081526020015f205f6101000a81548173ffffffffffffffffffffffffffffffffffffffff021916908373ffffffffffffffffffffffffffffffffffffffff16021790555050505050565b5f80611bb4858585611e7b565b90505f73ffffffffffffffffffffffffffffffffffffffff168173ffffffffffffffffffffffffffffffffffffffff1603611bf757611bf284612086565b611c36565b8473ffffffffffffffffffffffffffffffffffffffff168173ffffffffffffffffffffffffffffffffffffffff1614611c3557611c3481856120ca565b5b5b5f73ffffffffffffffffffffffffffffffffffffffff168573ffffffffffffffffffffffffffffffffffffffff1603611c7757611c7284612214565b611cb6565b8473ffffffffffffffffffffffffffffffffffffffff168173ffffffffffffffffffffffffffffffffffffffff1614611cb557611cb485856122d4565b5b5b809150509392505050565b5f805f90507a184f03e93ff9f4daa797ed6e38ed64bf6a1f0100000000000000008310611d1d577a184f03e93ff9f4daa797ed6e38ed64bf6a1f0100000000000000008381611d1357611d12614830565b5b0492506040810190505b6d04ee2d6d415b85acef81000000008310611d5a576d04ee2d6d415b85acef81000000008381611d5057611d4f614830565b5b0492506020810190505b662386f26fc100008310611d8957662386f26fc100008381611d7f57611d7e614830565b5b0492506010810190505b6305f5e1008310611db2576305f5e1008381611da857611da7614830565b5b0492506008810190505b6127108310611dd7576127108381611dcd57611dcc614830565b5b0492506004810190505b60648310611dfa5760648381611df057611def614830565b5b0492506002810190505b600a8310611e09576001810190505b80915050919050565b5f7f01ffc9a7000000000000000000000000000000000000000000000000000000007bffffffffffffffffffffffffffffffffffffffffffffffffffffffff1916827bffffffffffffffffffffffffffffffffffffffffffffffffffffffff1916149050919050565b5f80611e86846119af565b90505f73ffffffffffffffffffffffffffffffffffffffff168373ffffffffffffffffffffffffffffffffffffffff1614611ec757611ec6818486612358565b5b5f73ffffffffffffffffffffffffffffffffffffffff168173ffffffffffffffffffffffffffffffffffffffff1614611f5257611f065f855f806119e8565b600160035f8373ffffffffffffffffffffffffffffffffffffffff1673ffffffffffffffffffffffffffffffffffffffff1681526020019081526020015f205f82825403925050819055505b5f73ffffffffffffffffffffffffffffffffffffffff168573ffffffffffffffffffffffffffffffffffffffff1614611fd157600160035f8773ffffffffffffffffffffffffffffffffffffffff1673ffffffffffffffffffffffffffffffffffffffff1681526020019081526020015f205f82825401925050819055505b8460025f8681526020019081526020015f205f6101000a81548173ffffffffffffffffffffffffffffffffffffffff021916908373ffffffffffffffffffffffffffffffffffffffff160217905550838573ffffffffffffffffffffffffffffffffffffffff168273ffffffffffffffffffffffffffffffffffffffff167fddf252ad1be2c89b69c2b068fc378daa952ba7f163c4a11628f55a4df523b3ef60405160405180910390a4809150509392505050565b60088054905060095f8381526020019081526020015f2081905550600881908060018154018082558091505060019003905f5260205f20015f909190919091505550565b5f6120d483610c12565b90505f60075f8481526020019081526020015f205490508181146121ab575f60065f8673ffffffffffffffffffffffffffffffffffffffff1673ffffffffffffffffffffffffffffffffffffffff1681526020019081526020015f205f8481526020019081526020015f205490508060065f8773ffffffffffffffffffffffffffffffffffffffff1673ffffffffffffffffffffffffffffffffffffffff1681526020019081526020015f205f8481526020019081526020015f20819055508160075f8381526020019081526020015f2081905550505b60075f8481526020019081526020015f205f905560065f8573ffffffffffffffffffffffffffffffffffffffff1673ffffffffffffffffffffffffffffffffffffffff1681526020019081526020015f205f8381526020019081526020015f205f905550505050565b5f60016008805490506122279190612db6565b90505f60095f8481526020019081526020015f205490505f6008838154811061225357612252612cda565b5b905f5260205f2001549050806008838154811061227357612272612cda565b5b905f5260205f2001819055508160095f8381526020019081526020015f208190555060095f8581526020019081526020015f205f905560088054806122bb576122ba6149a9565b5b600190038181905f5260205f20015f9055905550505050565b5f60016122e084610c12565b6122ea9190612db6565b90508160065f8573ffffffffffffffffffffffffffffffffffffffff1673ffffffffffffffffffffffffffffffffffffffff1681526020019081526020015f205f8381526020019081526020015f20819055508060075f8481526020019081526020015f2081905550505050565b61236383838361241b565b612416575f73ffffffffffffffffffffffffffffffffffffffff168373ffffffffffffffffffffffffffffffffffffffff16036123d757806040517f7e2732890000000000000000000000000000000000000000000000000000000081526004016123ce91906127a1565b60405180910390fd5b81816040517f177e802f00000000000000000000000000000000000000000000000000000000815260040161240d929190612cb3565b60405180910390fd5b505050565b5f8073ffffffffffffffffffffffffffffffffffffffff168373ffffffffffffffffffffffffffffffffffffffff16141580156124d257508273ffffffffffffffffffffffffffffffffffffffff168473ffffffffffffffffffffffffffffffffffffffff16148061249357506124928484610e68565b5b806124d157508273ffffffffffffffffffffffffffffffffffffffff166124b9836110d8565b73ffffffffffffffffffffffffffffffffffffffff16145b5b90509392505050565b5f604051905090565b5f80fd5b5f80fd5b5f7fffffffff0000000000000000000000000000000000000000000000000000000082169050919050565b612520816124ec565b811461252a575f80fd5b50565b5f8135905061253b81612517565b92915050565b5f60208284031215612556576125556124e4565b5b5f6125638482850161252d565b91505092915050565b5f8115159050919050565b6125808161256c565b82525050565b5f6020820190506125995f830184612577565b92915050565b5f81519050919050565b5f82825260208201905092915050565b5f5b838110156125d65780820151818401526020810190506125bb565b5f8484015250505050565b5f601f19601f8301169050919050565b5f6125fb8261259f565b61260581856125a9565b93506126158185602086016125b9565b61261e816125e1565b840191505092915050565b5f6020820190508181035f83015261264181846125f1565b905092915050565b5f819050919050565b61265b81612649565b8114612665575f80fd5b50565b5f8135905061267681612652565b92915050565b5f60208284031215612691576126906124e4565b5b5f61269e84828501612668565b91505092915050565b5f73ffffffffffffffffffffffffffffffffffffffff82169050919050565b5f6126d0826126a7565b9050919050565b6126e0816126c6565b82525050565b5f6020820190506126f95f8301846126d7565b92915050565b612708816126c6565b8114612712575f80fd5b50565b5f81359050612723816126ff565b92915050565b5f806040838503121561273f5761273e6124e4565b5b5f61274c85828601612715565b925050602061275d85828601612668565b9150509250929050565b5f6020828403121561277c5761277b6124e4565b5b5f61278984828501612715565b91505092915050565b61279b81612649565b82525050565b5f6020820190506127b45f830184612792565b92915050565b5f805f606084860312156127d1576127d06124e4565b5b5f6127de86828701612715565b93505060206127ef86828701612715565b925050604061280086828701612668565b9150509250925092565b5f81519050919050565b5f82825260208201905092915050565b5f819050602082019050919050565b61283c81612649565b82525050565b5f61284d8383612833565b60208301905092915050565b5f602082019050919050565b5f61286f8261280a565b6128798185612814565b935061288483612824565b805f5b838110156128b457815161289b8882612842565b97506128a683612859565b925050600181019050612887565b5085935050505092915050565b5f6020820190508181035f8301526128d98184612865565b905092915050565b6128ea8161256c565b81146128f4575f80fd5b50565b5f81359050612905816128e1565b92915050565b5f8060408385031215612921576129206124e4565b5b5f61292e85828601612715565b925050602061293f858286016128f7565b9150509250929050565b5f80fd5b5f80fd5b7f4e487b71000000000000000000000000000000000000000000000000000000005f52604160045260245ffd5b612987826125e1565b810181811067ffffffffffffffff821117156129a6576129a5612951565b5b80604052505050565b5f6129b86124db565b90506129c4828261297e565b919050565b5f67ffffffffffffffff8211156129e3576129e2612951565b5b6129ec826125e1565b9050602081019050919050565b828183375f83830152505050565b5f612a19612a14846129c9565b6129af565b905082815260208101848484011115612a3557612a3461294d565b5b612a408482856129f9565b509392505050565b5f82601f830112612a5c57612a5b612949565b5b8135612a6c848260208601612a07565b91505092915050565b5f805f8060808587031215612a8d57612a8c6124e4565b5b5f612a9a87828801612715565b9450506020612aab87828801612715565b9350506040612abc87828801612668565b925050606085013567ffffffffffffffff811115612add57612adc6124e8565b5b612ae987828801612a48565b91505092959194509250565b5f8060408385031215612b0b57612b0a6124e4565b5b5f612b1885828601612715565b9250506020612b2985828601612715565b9150509250929050565b7f596f75206e65656420746f2073656e642065786163746c7920302e30303037345f8201527f2045544800000000000000000000000000000000000000000000000000000000602082015250565b5f612b8d6024836125a9565b9150612b9882612b33565b604082019050919050565b5f6020820190508181035f830152612bba81612b81565b9050919050565b7f4e487b71000000000000000000000000000000000000000000000000000000005f52601160045260245ffd5b5f612bf882612649565b9150612c0383612649565b9250828201905080821115612c1b57612c1a612bc1565b5b92915050565b7f4e487b71000000000000000000000000000000000000000000000000000000005f52602260045260245ffd5b5f6002820490506001821680612c6557607f821691505b602082108103612c7857612c77612c21565b5b50919050565b5f606082019050612c915f8301866126d7565b612c9e6020830185612792565b612cab60408301846126d7565b949350505050565b5f604082019050612cc65f8301856126d7565b612cd36020830184612792565b9392505050565b7f4e487b71000000000000000000000000000000000000000000000000000000005f52603260045260245ffd5b5f612d1182612649565b91507fffffffffffffffffffffffffffffffffffffffffffffffffffffffffffffffff8203612d4357612d42612bc1565b5b600182019050919050565b7f696e7375666600000000000000000000000000000000000000000000000000005f82015250565b5f612d826006836125a9565b9150612d8d82612d4e565b602082019050919050565b5f6020820190508181035f830152612daf81612d76565b9050919050565b5f612dc082612649565b9150612dcb83612649565b9250828203905081811115612de357612de2612bc1565b5b92915050565b5f81905092915050565b7f3c73766720786d6c6e733d22687474703a2f2f7777772e77332e6f72672f32305f8201527f30302f73766722207072657365727665417370656374526174696f3d22784d6960208201527f6e594d696e206d656574222076696577426f783d22302030203330302033303060408201527f223e3c706174682066696c6c3d22233941453843452220643d226d37332e333660608201527f33203132312e34383220392e3037312039382e323637683133352e3133346c3960808201527f2e3037312d39382e3236377a222f3e3c706174682066696c6c3d22234141363160a08201527f34382220643d224d3136382e343733203138392e3735632d31342e343238203160c08201527f342e34332d33342e3430312031372e3835372d34342e36303520372e3635362d60e08201527f31302e3139342d31302e3230332d362e3737332d33302e31373220372e3636326101008201527f2d34342e3630312031342e34332d31342e3433322033342e3339352d31372e386101208201527f35382034342e3539382d372e3635382031302e3230332031302e32303420362e6101408201527f3738312033302e3137332d372e3635352034342e3630337a222f3e3c706174686101608201527f2066696c6c3d22234243373135432220643d224d3133372e3031203135382e326101808201527f38366331332e31312d31332e3131322033302e3736342d31372e3130312034316101a08201527f2e35342d31302e3037382d2e3730372d312e3038362d312e3438382d322e31326101c08201527f362d322e3432332d332e3036312d31302e3230332d31302e322d33302e3136386101e08201527f2d362e3737332d34342e35393820372e3635382d31342e3433362031342e34326102008201527f382d31372e3835372033342e3339382d372e3636322034342e3630312e3933356102208201527f2e39333520312e39373520312e37313420332e30363220322e3432332d372e306102408201527f31382d31302e3737372d332e3033352d32382e3433342031302e3038312d34316102608201527f2e3534337a222f3e3c706174682066696c6c3d22234243373135432220643d226102808201527f4d3132382e343733203139382e373331632d2e35393720302d312e31392d2e306102a08201527f30362d312e3738352d2e30313861342e34353620342e3435362030203020312d6102c08201527f342e3336382d342e353435632e3034342d322e34333720322e30332d342e33386102e08201527f3520342e3434352d342e3338356c2e3038342e3030316331302e30362e3137336103008201527f2031372e3938372e3332382032302e3138332d31392e39353420322e34312d326103208201527f322e3231352031382e3437322d32362e35322032362e36352d32352e373032206103408201527f322e3434322e32343820342e32323420322e34333820332e393820342e3839316103608201527f2d2e32343620322e3434332d322e34333220342e32342d342e38343420332e396103808201527f39372d312e3534392d2e3131372d31342e3933352d2e3639342d31362e3934206103a08201527f31372e3738312d322e3731312032352e3032312d31342e3831352032372e39336103c08201527f342d32372e3430352032372e3933347a222f3e3c706174682066696c6c3d22236103e08201527f3941453843452220643d224d3232372e3930362035352e343636732d312e36306104008201527f332d31352e3131382d31312e3937362d31352e313138682d35302e313933732d6104208201527f382e3235392d31312e3539312d31382e3632392d31312e3539314839332e32336104408201527f32632d31352e36383520302d32312e3133362032362e3730392d32312e3133366104608201527f2032362e3730392d362e36373920302d31322e30393420352e3431352d31322e6104808201527f3039342031322e30393473352e3431362031322e3039342031322e30393420316104a08201527f322e303934683135352e383163362e36373920302031322e3039342d352e34316104c08201527f352031322e3039342d31322e303934732d352e3431352d31322e3039342d31326104e08201527f2e3039342d31322e3039347a222f3e3c706174682066696c6c3d2223414546346105008201527f44422220643d224d37382e3134332036372e35363163302d362e36373920352e6105208201527f3431362d31322e3039342031322e3039342d31322e3039342030203020352e346105408201527f35312d32362e3730392032312e3133362d32362e3730394839332e323332632d6105608201527f31352e36383520302d32312e3133362032362e3730392d32312e3133362032366105808201527f2e3730392d362e36373920302d31322e30393420352e3431352d31322e3039346105a08201527f2031322e30393473352e3431362031322e3039342031322e3039342031322e306105c08201527f39346831382e313431632d362e36373820302d31322e3039342d352e3431352d6105e08201527f31322e3039342d31322e3039347a222f3e3c706174682066696c6c3d222346346106008201527f463446342220643d224d39312e383431203237312e323433683131362e33326c6106208201527f342e3837352d35312e3439344838362e3936367a4d3232362e3330322037392e6106408201527f3635354837332e3639396c332e3936332034312e383237483232322e33347a226106608201527f2f3e3c706174682066696c6c3d22234145463444422220643d226d37332e33366106808201527f33203132312e34383220392e3037312039382e3236376831392e3134386c2d396106a08201527f2e3037312d39382e3236377a222f3e3c706174682066696c6c3d2223463946396106c08201527f46392220643d226d38362e393636203231392e37343920342e3837352035312e6106e08201527f3439346831392e3134386c2d342e3837352d35312e3439347a4d37332e3639396107008201527f2037392e3635356c332e3936332034312e3832374839362e38316c2d332e39366107208201527f322d34312e3832377a222f3e3c673e3c706174682066696c6c3d2223313631366107408201527f31362220643d224d3232372e3930342038342e31394837322e303936632d392e6107608201527f313720302d31362e36332d372e34362d31362e36332d31362e363373372e34366107808201527f2d31362e36332031362e36332d31362e3633683135352e38303863392e3137206107a08201527f302031362e363320372e34362031362e36332031362e3633732d372e343620316107c08201527f362e36332d31362e36332031362e36337a4d37322e3039362036302e303032636107e08201527f2d342e31363820302d372e35353920332e3339312d372e35353920372e3535396108008201527f73332e33393120372e35353920372e35353920372e353539683135352e3830386108208201527f63342e313638203020372e3535392d332e33393120372e3535392d372e3535396108408201527f732d332e3339312d372e3535392d372e3535392d372e3535394837322e3039366108608201527f7a222f3e3c706174682066696c6c3d22233136313631362220643d224d3232376108808201527f2e3930342036302e3030324837322e30393661342e35333620342e35333620306108a08201527f203020312d342e3434342d352e343432632e3235332d312e32333920362e34316108c08201527f2d33302e3333382032352e3537382d33302e3333386835332e38373663392e376108e08201527f393120302031372e36343120372e38362032302e3831342031312e35393168346109008201527f382e30316331312e34303820302031352e3732392031322e3035332031362e346109208201527f38352031392e31373561342e35333620342e3533362030203020312d342e35316109408201527f3120352e3031347a4d37382e3039312035302e393331483232322e3134632d316109608201527f2e3037362d322e3932362d322e3938312d362e3034372d362e3231312d362e306109808201527f3437682d35302e31393361342e35333920342e3533392030203020312d332e366109a08201527f39342d312e393033632d312e3933362d322e3638382d382e3430352d392e36386109c08201527f382d31342e3933362d392e3638384839332e3233632d372e393820302d31322e6109e08201527f3835362031302e3831332d31352e3133392031372e3633387a4d3133382e3439610a008201527f38203230372e373431632d372e3220302d31332e3737392d322e3331382d3138610a208201527f2e35392d372e3132362d31312e3935332d31312e3936332d382e3531342d3334610a408201527f2e38343820372e3636322d35312e3031372031362e3137322d31362e31373220610a608201527f33392e3035372d31392e3631312035312e3031312d372e36353820362e303036610a808201527f20362e30303720382e3337372031342e37373620362e3637362032342e363931610aa08201527f2d312e36303320392e3334312d362e3639322031382e3639312d31342e333331610ac08201527f2032362e333237762e303031632d392e36363520392e3636352d32312e373331610ae08201527f2031342e3738322d33322e3432382031342e3738327a6d32312e3430322d3633610b008201527f2e393934632d382e32323220302d31372e39353820342e3330382d32352e3931610b208201527f362031322e3236362d31322e3432372031322e3432312d31352e393334203239610b408201527f2e3930382d372e3636312033382e31383920382e32373920382e323735203235610b608201527f2e37363820342e3736362033382e3139312d372e363538762d2e30303263362e610b808201527f3332332d362e33322031302e3531362d31332e3933372031312e3830332d3231610ba08201527f2e34343620312e31392d362e3933322d2e3238352d31322e3837372d342e3134610bc08201527f392d31362e3734322d332e3131382d332e3131362d372e3433322d342e363037610be08201527f2d31322e3236382d342e3630377a222f3e3c706174682066696c6c3d22233136610c008201527f313631362220643d224d3132352e3932203139382e39313161342e3533362034610c208201527f2e3533362030203020312d2e3133372d392e3036396c2e3834372d2e30323563610c408201527f31302e3838342d2e3332332031372e3435342d2e3531382031392e3633332d32610c608201527f302e30363720322e3438392d32322e3332382031382e382d32362e3631392032610c808201527f372e3038312d32352e37383561342e35333320342e3533332030203020312034610ca08201527f2e30353120342e393732632d2e32353320322e3438332d322e34373620342e33610cc08201527f31322d342e39343120342e3035342d312e3536362d2e3133342d31352e313134610ce08201527f2d2e3734312d31372e3137362031372e3736322d332e30352032372e3337362d610d008201527f31372e3039352032372e3739342d32382e3337392032382e3132396c2d2e3833610d208201527f362e303237632d2e3034372e3030322d2e3039362e3030322d2e3134332e3030610d408201527f327a4d3230382e313539203237352e373738682d31342e37353661342e353335610d608201527f20342e35333520302031203120302d392e30376831302e36336c342e3031372d610d808201527f34322e3432334839312e39356c342e3031372034322e3432336837362e353133610da08201527f61342e35333520342e353335203020312031203020392e30374839312e383431610dc08201527f61342e35333520342e3533352030203020312d342e3531352d342e3130376c2d610de08201527f342e3837372d35312e34393461342e35333320342e3533332030203020312034610e008201527f2e3531342d342e393634683132362e30373161342e35333320342e3533332030610e208201527f2030203120342e35313420342e3936346c2d342e3837362035312e3439346134610e408201527f2e35333220342e3533322030203020312d342e35313320342e3130377a4d3232610e608201527f322e3334203132362e3031374837372e363661342e35333520342e3533352030610e808201527f203020312d342e3531352d342e3130376c2d332e3936312d34312e3832376134610ea08201527f2e35333420342e35333420302030203120342e3531342d342e39363468313532610ec08201527f2e36303161342e35333320342e35333320302030203120342e35313420342e39610ee08201527f36346c2d332e3936312034312e38323761342e35333120342e35333120302030610f008201527f20312d342e35313220342e3130377a6d2d3134302e3535332d392e3037316831610f208201527f33362e3432366c332e3130322d33322e3735364837382e3638356c332e313032610f408201527f2033322e3735367a222f3e3c706174682066696c6c3d22233136313631362220610f608201527f643d224d3231372e3233203232342e3238344838322e30393761342e35333520610f808201527f342e3533352030203020312d342e3531362d342e3131396c2d352e3631382d36610fa08201527f302e38353161342e35333620342e35333620302030203120342e312d342e3933610fc08201527f3363322e3438352d2e32323120342e37303220312e36303520342e3933322034610fe08201527f2e316c352e3233372035362e373332683132362e3836326c382e3233322d38396110008201527f2e3139364837386c312e3036342031312e35343161342e35333520342e3533356110208201527f2030203020312d342e3120342e393332632d322e3436382e3233392d342e37306110408201527f322d312e3630332d342e3933332d342e316c2d312e3532322d31362e343932616110608201527f342e35333520342e35333520302030203120342e3531362d342e3935314832326110808201527f362e3361342e35333420342e35333420302030203120342e35313620342e39356110a08201527f316c2d392e3037312039382e32363761342e35333320342e35333320302030206110c08201527f312d342e35313520342e3131397a222f3e3c2f673e00000000000000000000006110e082015250565b5f6142b26110f583612de9565b91506142bd82612df3565b6110f582019050919050565b7f3c7465787420783d223530252220793d22393925222066696c6c3d22233030305f8201527f3030302220746578742d616e63686f723d226d6964646c6522207374796c653d60208201527f22262331303b20202020666f6e742d73697a653a20323070783b262331303b2260408201527f3e20436f6666656520467269656e642023000000000000000000000000000000606082015250565b5f61436f607183612de9565b915061437a826142c9565b607182019050919050565b5f61438f8261259f565b6143998185612de9565b93506143a98185602086016125b9565b80840191505092915050565b7f3c2f746578743e3c2f7376673e000000000000000000000000000000000000005f82015250565b5f6143e9600d83612de9565b91506143f4826143b5565b600d82019050919050565b5f614409826142a5565b915061441482614363565b91506144208284614385565b915061442b826143dd565b915081905092915050565b7f646174613a696d6167652f7376672b786d6c3b6261736536342c0000000000005f82015250565b5f61446a601a83612de9565b915061447582614436565b601a82019050919050565b5f61448a8261445e565b91506144968284614385565b915081905092915050565b7f7b000000000000000000000000000000000000000000000000000000000000005f82015250565b5f6144d5600183612de9565b91506144e0826144a1565b600182019050919050565b7f226e616d65223a2022436f6666656520467269656e64202300000000000000005f82015250565b5f61451f601883612de9565b915061452a826144eb565b601882019050919050565b7f222c2000000000000000000000000000000000000000000000000000000000005f82015250565b5f614569600383612de9565b915061457482614535565b600382019050919050565b7f226465736372697074696f6e223a202257656c636f6d6520746f2074686520435f8201527f6f6666656520436c756221205468697320697320436f6666656520467269656e60208201527f64206e756d626572200000000000000000000000000000000000000000000000604082015250565b5f6145ff604983612de9565b915061460a8261457f565b604982019050919050565b7f222c0000000000000000000000000000000000000000000000000000000000005f82015250565b5f614649600283612de9565b915061465482614615565b600282019050919050565b7f22696d616765223a2022000000000000000000000000000000000000000000005f82015250565b5f614693600a83612de9565b915061469e8261465f565b600a82019050919050565b7f22000000000000000000000000000000000000000000000000000000000000005f82015250565b5f6146dd600183612de9565b91506146e8826146a9565b600182019050919050565b7f7d000000000000000000000000000000000000000000000000000000000000005f82015250565b5f614727600183612de9565b9150614732826146f3565b600182019050919050565b5f614747826144c9565b915061475282614513565b915061475e8286614385565b91506147698261455d565b9150614774826145f3565b91506147808285614385565b915061478b8261463d565b915061479682614687565b91506147a28284614385565b91506147ad826146d1565b91506147b88261471b565b9150819050949350505050565b7f646174613a6170706c69636174696f6e2f6a736f6e3b6261736536342c0000005f82015250565b5f6147f9601d83612de9565b9150614804826147c5565b601d82019050919050565b5f614819826147ed565b91506148258284614385565b915081905092915050565b7f4e487b71000000000000000000000000000000000000000000000000000000005f52601260045260245ffd5b5f81519050919050565b5f82825260208201905092915050565b5f6148818261485d565b61488b8185614867565b935061489b8185602086016125b9565b6148a4816125e1565b840191505092915050565b5f6080820190506148c25f8301876126d7565b6148cf60208301866126d7565b6148dc6040830185612792565b81810360608301526148ee8184614877565b905095945050505050565b5f8151905061490781612517565b92915050565b5f60208284031215614922576149216124e4565b5b5f61492f848285016148f9565b91505092915050565b5f61494282612649565b915061494d83612649565b92508261495d5761495c614830565b5b828204905092915050565b5f61497282612649565b915061497d83612649565b925082820261498b81612649565b915082820484148315176149a2576149a1612bc1565b5b5092915050565b7f4e487b71000000000000000000000000000000000000000000000000000000005f52603160045260245ffdfe4142434445464748494a4b4c4d4e4f505152535455565758595a6162636465666768696a6b6c6d6e6f707172737475767778797a303132333435363738392b2fa26469706673582212209463b4dd96053e2e6761e82900d9089aa346eabe1f1ebb7e614fe97a27dc161164736f6c63430008140033",
  "immutableReferences": {},
  "source": "// SPDX-License-Identifier: MIT\r\n// Compatible with OpenZeppelin Contracts ^5.0.0\r\npragma solidity ^0.8.11;\r\n\r\nimport {ERC721} from \"@openzeppelin/contracts/token/ERC721/ERC721.sol\";\r\nimport {ERC721Enumerable} from \"@openzeppelin/contracts/token/ERC721/extensions/ERC721Enumerable.sol\";\r\nimport {Ownable} from \"@openzeppelin/contracts/access/Ownable.sol\";\r\nimport {Base64} from \"@openzeppelin/contracts/utils/Base64.sol\";\r\nimport {Strings} from \"@openzeppelin/contracts/utils/Strings.sol\";\r\n\r\ncontract CoffeeFriend is ERC721, ERC721Enumerable, Ownable {\r\n\r\n    mapping(address => uint256) private _coffeePoints;\r\n\r\n    uint256 private currentTokenID;\r\n\r\n    constructor(address initialOwner)\r\n        ERC721(\"CoffeeFriend\", \"CoffeeFriend\")\r\n        Ownable(initialOwner)\r\n    { currentTokenID = 0;}\r\n\r\n     function mintCoffeeNFT() external {\r\n        // Check caller has 10 coffee points\r\n        require(_coffeePoints[msg.sender] >= 10, \"insuff\");\r\n\r\n        // reset coffee points for caller\r\n        _coffeePoints[msg.sender] = _coffeePoints[msg.sender] - 10;\r\n\r\n        // increment tokenID\r\n        currentTokenID += 1;\r\n\r\n        // Finally mint.\r\n        _mint(msg.sender, currentTokenID);\r\n    }\r\n\r\n    // get coffee point for ETH\r\n    function completeCoffeeBuyWithEth() public payable {\r\n        // 0.00074 ETH\r\n        require(\r\n            msg.value == 740000000000000,\r\n            \"You need to send exactly 0.00074 ETH\"\r\n        ); // 0.00074ETH is represented in wei\r\n        _coffeePoints[msg.sender] += 1; // Increment coffee points of the sender by 1\r\n    }\r\n\r\n    function addCoffeePoints(address account, uint256 amount) public onlyOwner {\r\n        _coffeePoints[account] += amount;\r\n    }\r\n\r\n    function getCoffeePoints(address account) public view returns (uint256) {\r\n        return _coffeePoints[account];\r\n    }\r\n\r\n    function generateSVG(uint256 tokenId) public pure returns (string memory) {\r\n        string memory svg = string(\r\n            abi.encodePacked(\r\n                '<svg xmlns=\"http://www.w3.org/2000/svg\" preserveAspectRatio=\"xMinYMin meet\" viewBox=\"0 0 300 300\"><path fill=\"#9AE8CE\" d=\"m73.363 121.482 9.071 98.267h135.134l9.071-98.267z\"/><path fill=\"#AA6148\" d=\"M168.473 189.75c-14.428 14.43-34.401 17.857-44.605 7.656-10.194-10.203-6.773-30.172 7.662-44.601 14.43-14.432 34.395-17.858 44.598-7.658 10.203 10.204 6.781 30.173-7.655 44.603z\"/><path fill=\"#BC715C\" d=\"M137.01 158.286c13.11-13.112 30.764-17.101 41.54-10.078-.707-1.086-1.488-2.126-2.423-3.061-10.203-10.2-30.168-6.773-44.598 7.658-14.436 14.428-17.857 34.398-7.662 44.601.935.935 1.975 1.714 3.062 2.423-7.018-10.777-3.035-28.434 10.081-41.543z\"/><path fill=\"#BC715C\" d=\"M128.473 198.731c-.597 0-1.19-.006-1.785-.018a4.456 4.456 0 0 1-4.368-4.545c.044-2.437 2.03-4.385 4.445-4.385l.084.001c10.06.173 17.987.328 20.183-19.954 2.41-22.215 18.472-26.52 26.65-25.702 2.442.248 4.224 2.438 3.98 4.891-.246 2.443-2.432 4.24-4.844 3.997-1.549-.117-14.935-.694-16.94 17.781-2.711 25.021-14.815 27.934-27.405 27.934z\"/><path fill=\"#9AE8CE\" d=\"M227.906 55.466s-1.603-15.118-11.976-15.118h-50.193s-8.259-11.591-18.629-11.591H93.232c-15.685 0-21.136 26.709-21.136 26.709-6.679 0-12.094 5.415-12.094 12.094s5.416 12.094 12.094 12.094h155.81c6.679 0 12.094-5.415 12.094-12.094s-5.415-12.094-12.094-12.094z\"/><path fill=\"#AEF4DB\" d=\"M78.143 67.561c0-6.679 5.416-12.094 12.094-12.094 0 0 5.451-26.709 21.136-26.709H93.232c-15.685 0-21.136 26.709-21.136 26.709-6.679 0-12.094 5.415-12.094 12.094s5.416 12.094 12.094 12.094h18.141c-6.678 0-12.094-5.415-12.094-12.094z\"/><path fill=\"#F4F4F4\" d=\"M91.841 271.243h116.32l4.875-51.494H86.966zM226.302 79.655H73.699l3.963 41.827H222.34z\"/><path fill=\"#AEF4DB\" d=\"m73.363 121.482 9.071 98.267h19.148l-9.071-98.267z\"/><path fill=\"#F9F9F9\" d=\"m86.966 219.749 4.875 51.494h19.148l-4.875-51.494zM73.699 79.655l3.963 41.827H96.81l-3.962-41.827z\"/><g><path fill=\"#161616\" d=\"M227.904 84.19H72.096c-9.17 0-16.63-7.46-16.63-16.63s7.46-16.63 16.63-16.63h155.808c9.17 0 16.63 7.46 16.63 16.63s-7.46 16.63-16.63 16.63zM72.096 60.002c-4.168 0-7.559 3.391-7.559 7.559s3.391 7.559 7.559 7.559h155.808c4.168 0 7.559-3.391 7.559-7.559s-3.391-7.559-7.559-7.559H72.096z\"/><path fill=\"#161616\" d=\"M227.904 60.002H72.096a4.536 4.536 0 0 1-4.444-5.442c.253-1.239 6.41-30.338 25.578-30.338h53.876c9.791 0 17.641 7.86 20.814 11.591h48.01c11.408 0 15.729 12.053 16.485 19.175a4.536 4.536 0 0 1-4.511 5.014zM78.091 50.931H222.14c-1.076-2.926-2.981-6.047-6.211-6.047h-50.193a4.539 4.539 0 0 1-3.694-1.903c-1.936-2.688-8.405-9.688-14.936-9.688H93.23c-7.98 0-12.856 10.813-15.139 17.638zM138.498 207.741c-7.2 0-13.779-2.318-18.59-7.126-11.953-11.963-8.514-34.848 7.662-51.017 16.172-16.172 39.057-19.611 51.011-7.658 6.006 6.007 8.377 14.776 6.676 24.691-1.603 9.341-6.692 18.691-14.331 26.327v.001c-9.665 9.665-21.731 14.782-32.428 14.782zm21.402-63.994c-8.222 0-17.958 4.308-25.916 12.266-12.427 12.421-15.934 29.908-7.661 38.189 8.279 8.275 25.768 4.766 38.191-7.658v-.002c6.323-6.32 10.516-13.937 11.803-21.446 1.19-6.932-.285-12.877-4.149-16.742-3.118-3.116-7.432-4.607-12.268-4.607z\"/><path fill=\"#161616\" d=\"M125.92 198.911a4.536 4.536 0 0 1-.137-9.069l.847-.025c10.884-.323 17.454-.518 19.633-20.067 2.489-22.328 18.8-26.619 27.081-25.785a4.533 4.533 0 0 1 4.051 4.972c-.253 2.483-2.476 4.312-4.941 4.054-1.566-.134-15.114-.741-17.176 17.762-3.05 27.376-17.095 27.794-28.379 28.129l-.836.027c-.047.002-.096.002-.143.002zM208.159 275.778h-14.756a4.535 4.535 0 1 1 0-9.07h10.63l4.017-42.423H91.95l4.017 42.423h76.513a4.535 4.535 0 1 1 0 9.07H91.841a4.535 4.535 0 0 1-4.515-4.107l-4.877-51.494a4.533 4.533 0 0 1 4.514-4.964h126.071a4.533 4.533 0 0 1 4.514 4.964l-4.876 51.494a4.532 4.532 0 0 1-4.513 4.107zM222.34 126.017H77.66a4.535 4.535 0 0 1-4.515-4.107l-3.961-41.827a4.534 4.534 0 0 1 4.514-4.964h152.601a4.533 4.533 0 0 1 4.514 4.964l-3.961 41.827a4.531 4.531 0 0 1-4.512 4.107zm-140.553-9.071h136.426l3.102-32.756H78.685l3.102 32.756z\"/><path fill=\"#161616\" d=\"M217.23 224.284H82.097a4.535 4.535 0 0 1-4.516-4.119l-5.618-60.851a4.536 4.536 0 0 1 4.1-4.933c2.485-.221 4.702 1.605 4.932 4.1l5.237 56.732h126.862l8.232-89.196H78l1.064 11.541a4.535 4.535 0 0 1-4.1 4.932c-2.468.239-4.702-1.603-4.933-4.1l-1.522-16.492a4.535 4.535 0 0 1 4.516-4.951H226.3a4.534 4.534 0 0 1 4.516 4.951l-9.071 98.267a4.533 4.533 0 0 1-4.515 4.119z\"/></g>',\r\n                '<text x=\"50%\" y=\"99%\" fill=\"#000000\" text-anchor=\"middle\" style=\"&#10;    font-size: 20px;&#10;\"> Coffee Friend #',\r\n                Strings.toString(tokenId),\r\n                \"</text></svg>\"\r\n            )\r\n        );\r\n        return svg;\r\n    }\r\n\r\n    function tokenURI(uint256 tokenId)\r\n        public\r\n        pure\r\n        override\r\n        returns (string memory)\r\n    {\r\n        string memory svg = generateSVG(tokenId);\r\n        string memory svgBase64 = string(\r\n            abi.encodePacked(\r\n                \"data:image/svg+xml;base64,\",\r\n                Base64.encode(bytes(svg))\r\n            )\r\n        );\r\n\r\n        string memory json = Base64.encode(\r\n            bytes(\r\n                string(\r\n                    abi.encodePacked(\r\n                        \"{\",\r\n                        '\"name\": \"Coffee Friend #',\r\n                        Strings.toString(tokenId),\r\n                        '\", ',\r\n                        '\"description\": \"Welcome to the Coffee Club! This is Coffee Friend number ',\r\n                        Strings.toString(tokenId),\r\n                        '\",', //comma added here\r\n                        '\"image\": \"',\r\n                        svgBase64,\r\n                        '\"',\r\n                        \"}\"\r\n                    )\r\n                )\r\n            )\r\n        );\r\n        return string(abi.encodePacked(\"data:application/json;base64,\", json));\r\n    }\r\n\r\n    // The following functions are overrides required by Solidity.\r\n\r\n    function _update(address to, uint256 tokenId, address auth)\r\n        internal\r\n        override(ERC721, ERC721Enumerable)\r\n        returns (address)\r\n    {\r\n        return super._update(to, tokenId, auth);\r\n    }\r\n\r\n    function _increaseBalance(address account, uint128 value)\r\n        internal\r\n        override(ERC721, ERC721Enumerable)\r\n    {\r\n        super._increaseBalance(account, value);\r\n    }\r\n\r\n    function supportsInterface(bytes4 interfaceId)\r\n        public\r\n        view\r\n        override(ERC721, ERC721Enumerable)\r\n        returns (bool)\r\n    {\r\n        return super.supportsInterface(interfaceId);\r\n    }\r\n\r\n    function getTokens(address account) external view returns (uint256[] memory) {\r\n        uint256 totalTokens = balanceOf(account);\r\n        uint256[] memory tokens = new uint256[](totalTokens);\r\n\r\n        for (uint256 i = 0; i < totalTokens; i++) {\r\n            uint256 tokenId = tokenOfOwnerByIndex(account, i);\r\n            tokens[i] = tokenId;\r\n        }\r\n        return tokens;\r\n    }\r\n\r\n}",
  "sourcePath": "C:\\Users\\anyam\\OneDrive\\Desktop\\DAO\\src\\contracts\\CoffeeFriend.sol",
  "compiler": {
    "name": "solc",
    "version": "0.8.20+commit.a1b79de6.Emscripten.clang"
  },
  "schemaVersion": "3.4.16",
  "updatedAt": "2024-04-11T17:51:37.720Z",
  "networkType": "ethereum",
  "devdoc": {
    "errors": {
      "ERC721EnumerableForbiddenBatchMint()": [
        {
          "details": "Batch mint is not allowed."
        }
      ],
      "ERC721IncorrectOwner(address,uint256,address)": [
        {
          "details": "Indicates an error related to the ownership over a particular token. Used in transfers.",
          "params": {
            "owner": "Address of the current owner of a token.",
            "sender": "Address whose tokens are being transferred.",
            "tokenId": "Identifier number of a token."
          }
        }
      ],
      "ERC721InsufficientApproval(address,uint256)": [
        {
          "details": "Indicates a failure with the `operator`s approval. Used in transfers.",
          "params": {
            "operator": "Address that may be allowed to operate on tokens without being their owner.",
            "tokenId": "Identifier number of a token."
          }
        }
      ],
      "ERC721InvalidApprover(address)": [
        {
          "details": "Indicates a failure with the `approver` of a token to be approved. Used in approvals.",
          "params": {
            "approver": "Address initiating an approval operation."
          }
        }
      ],
      "ERC721InvalidOperator(address)": [
        {
          "details": "Indicates a failure with the `operator` to be approved. Used in approvals.",
          "params": {
            "operator": "Address that may be allowed to operate on tokens without being their owner."
          }
        }
      ],
      "ERC721InvalidOwner(address)": [
        {
          "details": "Indicates that an address can't be an owner. For example, `address(0)` is a forbidden owner in EIP-20. Used in balance queries.",
          "params": {
            "owner": "Address of the current owner of a token."
          }
        }
      ],
      "ERC721InvalidReceiver(address)": [
        {
          "details": "Indicates a failure with the token `receiver`. Used in transfers.",
          "params": {
            "receiver": "Address to which tokens are being transferred."
          }
        }
      ],
      "ERC721InvalidSender(address)": [
        {
          "details": "Indicates a failure with the token `sender`. Used in transfers.",
          "params": {
            "sender": "Address whose tokens are being transferred."
          }
        }
      ],
      "ERC721NonexistentToken(uint256)": [
        {
          "details": "Indicates a `tokenId` whose `owner` is the zero address.",
          "params": {
            "tokenId": "Identifier number of a token."
          }
        }
      ],
      "ERC721OutOfBoundsIndex(address,uint256)": [
        {
          "details": "An `owner`'s token query was out of bounds for `index`. NOTE: The owner being `address(0)` indicates a global out of bounds index."
        }
      ],
      "OwnableInvalidOwner(address)": [
        {
          "details": "The owner is not a valid owner account. (eg. `address(0)`)"
        }
      ],
      "OwnableUnauthorizedAccount(address)": [
        {
          "details": "The caller account is not authorized to perform an operation."
        }
      ]
    },
    "events": {
      "Approval(address,address,uint256)": {
        "details": "Emitted when `owner` enables `approved` to manage the `tokenId` token."
      },
      "ApprovalForAll(address,address,bool)": {
        "details": "Emitted when `owner` enables or disables (`approved`) `operator` to manage all of its assets."
      },
      "Transfer(address,address,uint256)": {
        "details": "Emitted when `tokenId` token is transferred from `from` to `to`."
      }
    },
    "kind": "dev",
    "methods": {
      "approve(address,uint256)": {
        "details": "See {IERC721-approve}."
      },
      "balanceOf(address)": {
        "details": "See {IERC721-balanceOf}."
      },
      "getApproved(uint256)": {
        "details": "See {IERC721-getApproved}."
      },
      "isApprovedForAll(address,address)": {
        "details": "See {IERC721-isApprovedForAll}."
      },
      "name()": {
        "details": "See {IERC721Metadata-name}."
      },
      "owner()": {
        "details": "Returns the address of the current owner."
      },
      "ownerOf(uint256)": {
        "details": "See {IERC721-ownerOf}."
      },
      "renounceOwnership()": {
        "details": "Leaves the contract without owner. It will not be possible to call `onlyOwner` functions. Can only be called by the current owner. NOTE: Renouncing ownership will leave the contract without an owner, thereby disabling any functionality that is only available to the owner."
      },
      "safeTransferFrom(address,address,uint256)": {
        "details": "See {IERC721-safeTransferFrom}."
      },
      "safeTransferFrom(address,address,uint256,bytes)": {
        "details": "See {IERC721-safeTransferFrom}."
      },
      "setApprovalForAll(address,bool)": {
        "details": "See {IERC721-setApprovalForAll}."
      },
      "symbol()": {
        "details": "See {IERC721Metadata-symbol}."
      },
      "tokenByIndex(uint256)": {
        "details": "See {IERC721Enumerable-tokenByIndex}."
      },
      "tokenOfOwnerByIndex(address,uint256)": {
        "details": "See {IERC721Enumerable-tokenOfOwnerByIndex}."
      },
      "tokenURI(uint256)": {
        "details": "See {IERC721Metadata-tokenURI}."
      },
      "totalSupply()": {
        "details": "See {IERC721Enumerable-totalSupply}."
      },
      "transferFrom(address,address,uint256)": {
        "details": "See {IERC721-transferFrom}."
      },
      "transferOwnership(address)": {
        "details": "Transfers ownership of the contract to a new account (`newOwner`). Can only be called by the current owner."
      }
    },
    "version": 1
  },
  "userdoc": {
    "kind": "user",
    "methods": {},
    "version": 1
  }
}