{
  "contractName": "DominionDAO",
  "abi": [
    {
      "inputs": [],
      "name": "AccessControlBadConfirmation",
      "type": "error"
    },
    {
      "inputs": [
        {
          "internalType": "address",
          "name": "account",
          "type": "address"
        },
        {
          "internalType": "bytes32",
          "name": "neededRole",
          "type": "bytes32"
        }
      ],
      "name": "AccessControlUnauthorizedAccount",
      "type": "error"
    },
    {
      "inputs": [],
      "name": "ReentrancyGuardReentrantCall",
      "type": "error"
    },
    {
      "anonymous": false,
      "inputs": [
        {
          "indexed": true,
          "internalType": "address",
          "name": "initiator",
          "type": "address"
        },
        {
          "indexed": false,
          "internalType": "bytes32",
          "name": "role",
          "type": "bytes32"
        },
        {
          "indexed": false,
          "internalType": "string",
          "name": "message",
          "type": "string"
        },
        {
          "indexed": true,
          "internalType": "address",
          "name": "beneficiary",
          "type": "address"
        }
      ],
      "name": "Action",
      "type": "event"
    },
    {
      "anonymous": false,
      "inputs": [
        {
          "indexed": true,
          "internalType": "bytes32",
          "name": "role",
          "type": "bytes32"
        },
        {
          "indexed": true,
          "internalType": "bytes32",
          "name": "previousAdminRole",
          "type": "bytes32"
        },
        {
          "indexed": true,
          "internalType": "bytes32",
          "name": "newAdminRole",
          "type": "bytes32"
        }
      ],
      "name": "RoleAdminChanged",
      "type": "event"
    },
    {
      "anonymous": false,
      "inputs": [
        {
          "indexed": true,
          "internalType": "bytes32",
          "name": "role",
          "type": "bytes32"
        },
        {
          "indexed": true,
          "internalType": "address",
          "name": "account",
          "type": "address"
        },
        {
          "indexed": true,
          "internalType": "address",
          "name": "sender",
          "type": "address"
        }
      ],
      "name": "RoleGranted",
      "type": "event"
    },
    {
      "anonymous": false,
      "inputs": [
        {
          "indexed": true,
          "internalType": "bytes32",
          "name": "role",
          "type": "bytes32"
        },
        {
          "indexed": true,
          "internalType": "address",
          "name": "account",
          "type": "address"
        },
        {
          "indexed": true,
          "internalType": "address",
          "name": "sender",
          "type": "address"
        }
      ],
      "name": "RoleRevoked",
      "type": "event"
    },
    {
      "inputs": [],
      "name": "DEFAULT_ADMIN_ROLE",
      "outputs": [
        {
          "internalType": "bytes32",
          "name": "",
          "type": "bytes32"
        }
      ],
      "stateMutability": "view",
      "type": "function",
      "constant": true
    },
    {
      "inputs": [],
      "name": "daoBalance",
      "outputs": [
        {
          "internalType": "uint256",
          "name": "",
          "type": "uint256"
        }
      ],
      "stateMutability": "view",
      "type": "function",
      "constant": true
    },
    {
      "inputs": [
        {
          "internalType": "bytes32",
          "name": "role",
          "type": "bytes32"
        }
      ],
      "name": "getRoleAdmin",
      "outputs": [
        {
          "internalType": "bytes32",
          "name": "",
          "type": "bytes32"
        }
      ],
      "stateMutability": "view",
      "type": "function",
      "constant": true
    },
    {
      "inputs": [
        {
          "internalType": "bytes32",
          "name": "role",
          "type": "bytes32"
        },
        {
          "internalType": "address",
          "name": "account",
          "type": "address"
        }
      ],
      "name": "grantRole",
      "outputs": [],
      "stateMutability": "nonpayable",
      "type": "function"
    },
    {
      "inputs": [
        {
          "internalType": "bytes32",
          "name": "role",
          "type": "bytes32"
        },
        {
          "internalType": "address",
          "name": "account",
          "type": "address"
        }
      ],
      "name": "hasRole",
      "outputs": [
        {
          "internalType": "bool",
          "name": "",
          "type": "bool"
        }
      ],
      "stateMutability": "view",
      "type": "function",
      "constant": true
    },
    {
      "inputs": [
        {
          "internalType": "bytes32",
          "name": "role",
          "type": "bytes32"
        },
        {
          "internalType": "address",
          "name": "callerConfirmation",
          "type": "address"
        }
      ],
      "name": "renounceRole",
      "outputs": [],
      "stateMutability": "nonpayable",
      "type": "function"
    },
    {
      "inputs": [
        {
          "internalType": "bytes32",
          "name": "role",
          "type": "bytes32"
        },
        {
          "internalType": "address",
          "name": "account",
          "type": "address"
        }
      ],
      "name": "revokeRole",
      "outputs": [],
      "stateMutability": "nonpayable",
      "type": "function"
    },
    {
      "inputs": [
        {
          "internalType": "bytes4",
          "name": "interfaceId",
          "type": "bytes4"
        }
      ],
      "name": "supportsInterface",
      "outputs": [
        {
          "internalType": "bool",
          "name": "",
          "type": "bool"
        }
      ],
      "stateMutability": "view",
      "type": "function",
      "constant": true
    },
    {
      "inputs": [
        {
          "internalType": "string",
          "name": "title",
          "type": "string"
        },
        {
          "internalType": "string",
          "name": "description",
          "type": "string"
        },
        {
          "internalType": "address",
          "name": "beneficiary",
          "type": "address"
        }
      ],
      "name": "createProposal",
      "outputs": [
        {
          "components": [
            {
              "internalType": "uint256",
              "name": "id",
              "type": "uint256"
            },
            {
              "internalType": "uint256",
              "name": "duration",
              "type": "uint256"
            },
            {
              "internalType": "uint256",
              "name": "upvotes",
              "type": "uint256"
            },
            {
              "internalType": "uint256",
              "name": "downvotes",
              "type": "uint256"
            },
            {
              "internalType": "string",
              "name": "title",
              "type": "string"
            },
            {
              "internalType": "string",
              "name": "description",
              "type": "string"
            },
            {
              "internalType": "bool",
              "name": "passed",
              "type": "bool"
            },
            {
              "internalType": "bool",
              "name": "paid",
              "type": "bool"
            },
            {
              "internalType": "address payable",
              "name": "beneficiary",
              "type": "address"
            },
            {
              "internalType": "address",
              "name": "proposer",
              "type": "address"
            },
            {
              "internalType": "address",
              "name": "executor",
              "type": "address"
            }
          ],
          "internalType": "struct DominionDAO.ProposalStruct",
          "name": "",
          "type": "tuple"
        }
      ],
      "stateMutability": "nonpayable",
      "type": "function"
    },
    {
      "inputs": [
        {
          "internalType": "uint256",
          "name": "proposalId",
          "type": "uint256"
        },
        {
          "internalType": "bool",
          "name": "choosen",
          "type": "bool"
        }
      ],
      "name": "performVote",
      "outputs": [
        {
          "components": [
            {
              "internalType": "address",
              "name": "voter",
              "type": "address"
            },
            {
              "internalType": "uint256",
              "name": "timestamp",
              "type": "uint256"
            },
            {
              "internalType": "bool",
              "name": "choosen",
              "type": "bool"
            }
          ],
          "internalType": "struct DominionDAO.VotedStruct",
          "name": "",
          "type": "tuple"
        }
      ],
      "stateMutability": "nonpayable",
      "type": "function"
    },
    {
      "inputs": [
        {
          "internalType": "uint256",
          "name": "numNFTs",
          "type": "uint256"
        },
        {
          "internalType": "uint256[]",
          "name": "_tokenIDs",
          "type": "uint256[]"
        },
        {
          "internalType": "address",
          "name": "contractNFT",
          "type": "address"
        }
      ],
      "name": "contribute",
      "outputs": [
        {
          "internalType": "uint256",
          "name": "",
          "type": "uint256"
        }
      ],
      "stateMutability": "nonpayable",
      "type": "function"
    },
    {
      "inputs": [],
      "name": "getProposals",
      "outputs": [
        {
          "components": [
            {
              "internalType": "uint256",
              "name": "id",
              "type": "uint256"
            },
            {
              "internalType": "uint256",
              "name": "duration",
              "type": "uint256"
            },
            {
              "internalType": "uint256",
              "name": "upvotes",
              "type": "uint256"
            },
            {
              "internalType": "uint256",
              "name": "downvotes",
              "type": "uint256"
            },
            {
              "internalType": "string",
              "name": "title",
              "type": "string"
            },
            {
              "internalType": "string",
              "name": "description",
              "type": "string"
            },
            {
              "internalType": "bool",
              "name": "passed",
              "type": "bool"
            },
            {
              "internalType": "bool",
              "name": "paid",
              "type": "bool"
            },
            {
              "internalType": "address payable",
              "name": "beneficiary",
              "type": "address"
            },
            {
              "internalType": "address",
              "name": "proposer",
              "type": "address"
            },
            {
              "internalType": "address",
              "name": "executor",
              "type": "address"
            }
          ],
          "internalType": "struct DominionDAO.ProposalStruct[]",
          "name": "props",
          "type": "tuple[]"
        }
      ],
      "stateMutability": "view",
      "type": "function",
      "constant": true
    },
    {
      "inputs": [
        {
          "internalType": "uint256",
          "name": "proposalId",
          "type": "uint256"
        }
      ],
      "name": "getProposal",
      "outputs": [
        {
          "components": [
            {
              "internalType": "uint256",
              "name": "id",
              "type": "uint256"
            },
            {
              "internalType": "uint256",
              "name": "duration",
              "type": "uint256"
            },
            {
              "internalType": "uint256",
              "name": "upvotes",
              "type": "uint256"
            },
            {
              "internalType": "uint256",
              "name": "downvotes",
              "type": "uint256"
            },
            {
              "internalType": "string",
              "name": "title",
              "type": "string"
            },
            {
              "internalType": "string",
              "name": "description",
              "type": "string"
            },
            {
              "internalType": "bool",
              "name": "passed",
              "type": "bool"
            },
            {
              "internalType": "bool",
              "name": "paid",
              "type": "bool"
            },
            {
              "internalType": "address payable",
              "name": "beneficiary",
              "type": "address"
            },
            {
              "internalType": "address",
              "name": "proposer",
              "type": "address"
            },
            {
              "internalType": "address",
              "name": "executor",
              "type": "address"
            }
          ],
          "internalType": "struct DominionDAO.ProposalStruct",
          "name": "",
          "type": "tuple"
        }
      ],
      "stateMutability": "view",
      "type": "function",
      "constant": true
    },
    {
      "inputs": [
        {
          "internalType": "uint256",
          "name": "proposalId",
          "type": "uint256"
        }
      ],
      "name": "getVotesOf",
      "outputs": [
        {
          "components": [
            {
              "internalType": "address",
              "name": "voter",
              "type": "address"
            },
            {
              "internalType": "uint256",
              "name": "timestamp",
              "type": "uint256"
            },
            {
              "internalType": "bool",
              "name": "choosen",
              "type": "bool"
            }
          ],
          "internalType": "struct DominionDAO.VotedStruct[]",
          "name": "",
          "type": "tuple[]"
        }
      ],
      "stateMutability": "view",
      "type": "function",
      "constant": true
    },
    {
      "inputs": [],
      "name": "getStakeholderVotes",
      "outputs": [
        {
          "internalType": "uint256[]",
          "name": "",
          "type": "uint256[]"
        }
      ],
      "stateMutability": "view",
      "type": "function",
      "constant": true
    },
    {
      "inputs": [],
      "name": "getStakeholderBalance",
      "outputs": [
        {
          "internalType": "uint256",
          "name": "",
          "type": "uint256"
        }
      ],
      "stateMutability": "view",
      "type": "function",
      "constant": true
    },
    {
      "inputs": [],
      "name": "isStakeholder",
      "outputs": [
        {
          "internalType": "bool",
          "name": "",
          "type": "bool"
        }
      ],
      "stateMutability": "view",
      "type": "function",
      "constant": true
    },
    {
      "inputs": [],
      "name": "getContributorBalance",
      "outputs": [
        {
          "internalType": "uint256",
          "name": "",
          "type": "uint256"
        }
      ],
      "stateMutability": "view",
      "type": "function",
      "constant": true
    },
    {
      "inputs": [],
      "name": "isContributor",
      "outputs": [
        {
          "internalType": "bool",
          "name": "",
          "type": "bool"
        }
      ],
      "stateMutability": "view",
      "type": "function",
      "constant": true
    },
    {
      "inputs": [],
      "name": "getBalance",
      "outputs": [
        {
          "internalType": "uint256",
          "name": "",
          "type": "uint256"
        }
      ],
      "stateMutability": "view",
      "type": "function",
      "constant": true
    }
  ],
  "bytecode": "0x6101006040527fa0bb1af1c90aa52ed052b92714ff0087008cc720049bf1af77cca2600b31e80c6080908152507ff4bb84e1768dd286358a736d195a0b228621173f655a73b89bf8b191ed0ba07d60a090815250600160c09081525062093a8063ffffffff1660e09063ffffffff1681525034801561007c575f80fd5b5060015f8190555060805160a05160c05160e0516137486100fd5f395f6113ed01525f61076401525f81816106ed0152818161082301528181610a0e0152818161103001528181611183015281816112a1015281816117840152611a3f01525f818161084e015281816108d101528181610b2f015261147601526137485ff3fe608060405234801561000f575f80fd5b506004361061012a575f3560e01c806391d14854116100ab578063bd9728161161006f578063bd9728161461036a578063c02146ac14610388578063c7f758a8146103a6578063d547741f146103d6578063d6cc8016146103f25761012a565b806391d148541461029e578063a217fddf146102ce578063a22f1db7146102ec578063aefd16d11461030a578063b31f111c1461033a5761012a565b806336568abe116100f257806336568abe146101f85780633cdb48c21461021457806362564c481461023257806369a136dc146102505780636a80d84d146102805761012a565b806301ffc9a71461012e57806312065fe01461015e57806322d1e06b1461017c578063248a9ca3146101ac5780632f2ff15d146101dc575b5f80fd5b610148600480360381019061014391906123c0565b610410565b6040516101559190612405565b60405180910390f35b610166610489565b6040516101739190612436565b60405180910390f35b61019660048036038101906101919190612623565b6104cd565b6040516101a39190612436565b60405180910390f35b6101c660048036038101906101c191906126c2565b610a56565b6040516101d391906126fc565b60405180910390f35b6101f660048036038101906101f19190612715565b610a73565b005b610212600480360381019061020d9190612715565b610a95565b005b61021c610b10565b6040516102299190612436565b60405180910390f35b61023a610bdb565b60405161024791906129c8565b60405180910390f35b61026a600480360381019061026591906129e8565b610f0f565b6040516102779190612afb565b60405180910390f35b610288610ff4565b6040516102959190612436565b60405180910390f35b6102b860048036038101906102b39190612715565b6110dc565b6040516102c59190612405565b60405180910390f35b6102d6611140565b6040516102e391906126fc565b60405180910390f35b6102f4611146565b6040516103019190612bc3565b60405180910390f35b610324600480360381019061031f9190612c3c565b61127b565b6040516103319190612dc0565b60405180910390f35b610354600480360381019061034f9190612e0a565b611741565b6040516103619190612e88565b60405180910390f35b610372611ab1565b60405161037f9190612436565b60405180910390f35b610390611ab7565b60405161039d9190612405565b60405180910390f35b6103c060048036038101906103bb91906129e8565b611afd565b6040516103cd9190612dc0565b60405180910390f35b6103f060048036038101906103eb9190612715565b611da5565b005b6103fa611dc7565b6040516104079190612405565b60405180910390f35b5f7f7965db0b000000000000000000000000000000000000000000000000000000007bffffffffffffffffffffffffffffffffffffffffffffffffffffffff1916827bffffffffffffffffffffffffffffffffffffffffffffffffffffffff19161480610482575061048182611e0d565b5b9050919050565b5f60075f3373ffffffffffffffffffffffffffffffffffffffff1673ffffffffffffffffffffffffffffffffffffffff1681526020019081526020015f2054905090565b5f6104d6611e76565b5f8411610518576040517f08c379a000000000000000000000000000000000000000000000000000000000815260040161050f90612efb565b60405180910390fd5b825184111561055c576040517f08c379a000000000000000000000000000000000000000000000000000000000815260040161055390612f63565b60405180910390fd5b5f5b848110156106e7575f84828151811061057a57610579612f81565b5b602002602001015190503373ffffffffffffffffffffffffffffffffffffffff168473ffffffffffffffffffffffffffffffffffffffff16636352211e836040518263ffffffff1660e01b81526004016105d49190612436565b602060405180830381865afa1580156105ef573d5f803e3d5ffd5b505050506040513d601f19601f820116820180604052508101906106139190612fc2565b73ffffffffffffffffffffffffffffffffffffffff1614610669576040517f08c379a000000000000000000000000000000000000000000000000000000000815260040161066090613037565b60405180910390fd5b8373ffffffffffffffffffffffffffffffffffffffff166323b872dd3330846040518463ffffffff1660e01b81526004016106a693929190613064565b5f604051808303815f87803b1580156106bd575f80fd5b505af11580156106cf573d5f803e3d5ffd5b505050505080806106df906130c6565b91505061055e565b506107127f0000000000000000000000000000000000000000000000000000000000000000336110dc565b6108fe575f8460075f3373ffffffffffffffffffffffffffffffffffffffff1673ffffffffffffffffffffffffffffffffffffffff1681526020019081526020015f2054610760919061310d565b90507f00000000000000000000000000000000000000000000000000000000000000008110610879578060085f3373ffffffffffffffffffffffffffffffffffffffff1673ffffffffffffffffffffffffffffffffffffffff1681526020019081526020015f20819055508460075f3373ffffffffffffffffffffffffffffffffffffffff1673ffffffffffffffffffffffffffffffffffffffff1681526020019081526020015f205f828254610817919061310d565b925050819055506108487f000000000000000000000000000000000000000000000000000000000000000033611eba565b506108737f000000000000000000000000000000000000000000000000000000000000000033611eba565b506108f8565b8460075f3373ffffffffffffffffffffffffffffffffffffffff1673ffffffffffffffffffffffffffffffffffffffff1681526020019081526020015f205f8282546108c5919061310d565b925050819055506108f67f000000000000000000000000000000000000000000000000000000000000000033611eba565b505b506109a5565b8360075f3373ffffffffffffffffffffffffffffffffffffffff1673ffffffffffffffffffffffffffffffffffffffff1681526020019081526020015f205f82825461094a919061310d565b925050819055508360085f3373ffffffffffffffffffffffffffffffffffffffff1673ffffffffffffffffffffffffffffffffffffffff1681526020019081526020015f205f82825461099d919061310d565b925050819055505b8360035f8282546109b6919061310d565b925050819055503073ffffffffffffffffffffffffffffffffffffffff163373ffffffffffffffffffffffffffffffffffffffff167fe1ef32a1383be3f3cda33943e1411d85455379081194d55b243fb2335c9e2e597f0000000000000000000000000000000000000000000000000000000000000000604051610a3a919061318a565b60405180910390a36003549050610a4f611fa3565b9392505050565b5f60015f8381526020019081526020015f20600101549050919050565b610a7c82610a56565b610a8581611fac565b610a8f8383611eba565b50505050565b610a9d611fc0565b73ffffffffffffffffffffffffffffffffffffffff168173ffffffffffffffffffffffffffffffffffffffff1614610b01576040517f6697b23200000000000000000000000000000000000000000000000000000000815260040160405180910390fd5b610b0b8282611fc7565b505050565b5f6040518060600160405280602181526020016136c360219139610b547f0000000000000000000000000000000000000000000000000000000000000000336110dc565b8190610b96576040517f08c379a0000000000000000000000000000000000000000000000000000000008152600401610b8d91906131ee565b60405180910390fd5b5060075f3373ffffffffffffffffffffffffffffffffffffffff1673ffffffffffffffffffffffffffffffffffffffff1681526020019081526020015f205491505090565b606060025467ffffffffffffffff811115610bf957610bf861248d565b5b604051908082528060200260200182016040528015610c3257816020015b610c1f61228d565b815260200190600190039081610c175790505b5090505f5b600254811015610f0b5760045f8281526020019081526020015f20604051806101600160405290815f8201548152602001600182015481526020016002820154815260200160038201548152602001600482018054610c959061323b565b80601f0160208091040260200160405190810160405280929190818152602001828054610cc19061323b565b8015610d0c5780601f10610ce357610100808354040283529160200191610d0c565b820191905f5260205f20905b815481529060010190602001808311610cef57829003601f168201915b50505050508152602001600582018054610d259061323b565b80601f0160208091040260200160405190810160405280929190818152602001828054610d519061323b565b8015610d9c5780601f10610d7357610100808354040283529160200191610d9c565b820191905f5260205f20905b815481529060010190602001808311610d7f57829003601f168201915b50505050508152602001600682015f9054906101000a900460ff161515151581526020016006820160019054906101000a900460ff161515151581526020016006820160029054906101000a900473ffffffffffffffffffffffffffffffffffffffff1673ffffffffffffffffffffffffffffffffffffffff1673ffffffffffffffffffffffffffffffffffffffff168152602001600782015f9054906101000a900473ffffffffffffffffffffffffffffffffffffffff1673ffffffffffffffffffffffffffffffffffffffff1673ffffffffffffffffffffffffffffffffffffffff168152602001600882015f9054906101000a900473ffffffffffffffffffffffffffffffffffffffff1673ffffffffffffffffffffffffffffffffffffffff1673ffffffffffffffffffffffffffffffffffffffff1681525050828281518110610eed57610eec612f81565b5b60200260200101819052508080610f03906130c6565b915050610c37565b5090565b606060065f8381526020019081526020015f20805480602002602001604051908101604052809291908181526020015f905b82821015610fe9578382905f5260205f2090600302016040518060600160405290815f82015f9054906101000a900473ffffffffffffffffffffffffffffffffffffffff1673ffffffffffffffffffffffffffffffffffffffff1673ffffffffffffffffffffffffffffffffffffffff16815260200160018201548152602001600282015f9054906101000a900460ff16151515158152505081526020019060010190610f41565b505050509050919050565b5f6040518060400160405280601f81526020017f556e617574686f72697a65643a206e6f742061207374616b65686f6c646572008152506110557f0000000000000000000000000000000000000000000000000000000000000000336110dc565b8190611097576040517f08c379a000000000000000000000000000000000000000000000000000000000815260040161108e91906131ee565b60405180910390fd5b5060085f3373ffffffffffffffffffffffffffffffffffffffff1673ffffffffffffffffffffffffffffffffffffffff1681526020019081526020015f205491505090565b5f60015f8481526020019081526020015f205f015f8373ffffffffffffffffffffffffffffffffffffffff1673ffffffffffffffffffffffffffffffffffffffff1681526020019081526020015f205f9054906101000a900460ff16905092915050565b5f801b81565b60606040518060400160405280601f81526020017f556e617574686f72697a65643a206e6f742061207374616b65686f6c646572008152506111a87f0000000000000000000000000000000000000000000000000000000000000000336110dc565b81906111ea576040517f08c379a00000000000000000000000000000000000000000000000000000000081526004016111e191906131ee565b60405180910390fd5b5060055f3373ffffffffffffffffffffffffffffffffffffffff1673ffffffffffffffffffffffffffffffffffffffff1681526020019081526020015f2080548060200260200160405190810160405280929190818152602001828054801561127057602002820191905f5260205f20905b81548152602001906001019080831161125c575b505050505091505090565b61128361228d565b6040518060600160405280602f81526020016136e4602f91396112c67f0000000000000000000000000000000000000000000000000000000000000000336110dc565b8190611308576040517f08c379a00000000000000000000000000000000000000000000000000000000081526004016112ff91906131ee565b60405180910390fd5b505f60025f81548092919061131c906130c6565b9190505590505f60045f8381526020019081526020015f20905081815f018190555033816007015f6101000a81548173ffffffffffffffffffffffffffffffffffffffff021916908373ffffffffffffffffffffffffffffffffffffffff1602179055508888826004019182611393929190613412565b5086868260050191826113a7929190613412565b50848160060160026101000a81548173ffffffffffffffffffffffffffffffffffffffff021916908373ffffffffffffffffffffffffffffffffffffffff1602179055507f000000000000000000000000000000000000000000000000000000000000000063ffffffff164261141d919061310d565b81600101819055508473ffffffffffffffffffffffffffffffffffffffff163373ffffffffffffffffffffffffffffffffffffffff167fe1ef32a1383be3f3cda33943e1411d85455379081194d55b243fb2335c9e2e597f00000000000000000000000000000000000000000000000000000000000000006040516114a29190613529565b60405180910390a380604051806101600160405290815f82015481526020016001820154815260200160028201548152602001600382015481526020016004820180546114ee9061323b565b80601f016020809104026020016040519081016040528092919081815260200182805461151a9061323b565b80156115655780601f1061153c57610100808354040283529160200191611565565b820191905f5260205f20905b81548152906001019060200180831161154857829003601f168201915b5050505050815260200160058201805461157e9061323b565b80601f01602080910402602001604051908101604052809291908181526020018280546115aa9061323b565b80156115f55780601f106115cc576101008083540402835291602001916115f5565b820191905f5260205f20905b8154815290600101906020018083116115d857829003601f168201915b50505050508152602001600682015f9054906101000a900460ff161515151581526020016006820160019054906101000a900460ff161515151581526020016006820160029054906101000a900473ffffffffffffffffffffffffffffffffffffffff1673ffffffffffffffffffffffffffffffffffffffff1673ffffffffffffffffffffffffffffffffffffffff168152602001600782015f9054906101000a900473ffffffffffffffffffffffffffffffffffffffff1673ffffffffffffffffffffffffffffffffffffffff1673ffffffffffffffffffffffffffffffffffffffff168152602001600882015f9054906101000a900473ffffffffffffffffffffffffffffffffffffffff1673ffffffffffffffffffffffffffffffffffffffff1673ffffffffffffffffffffffffffffffffffffffff1681525050935050505095945050505050565b611749612324565b6040518060400160405280601f81526020017f556e617574686f72697a65643a205374616b65686f6c64657273206f6e6c79008152506117a97f0000000000000000000000000000000000000000000000000000000000000000336110dc565b81906117eb576040517f08c379a00000000000000000000000000000000000000000000000000000000081526004016117e291906131ee565b60405180910390fd5b505f60045f8681526020019081526020015f209050611809816120b1565b5f60085f3373ffffffffffffffffffffffffffffffffffffffff1673ffffffffffffffffffffffffffffffffffffffff1681526020019081526020015f20549050841561186f5780826002015f828254611863919061310d565b9250508190555061188a565b80826003015f828254611882919061310d565b925050819055505b60055f3373ffffffffffffffffffffffffffffffffffffffff1673ffffffffffffffffffffffffffffffffffffffff1681526020019081526020015f20825f0154908060018154018082558091505060019003905f5260205f20015f909190919091505560065f835f015481526020019081526020015f2060405180606001604052803373ffffffffffffffffffffffffffffffffffffffff168152602001428152602001871515815250908060018154018082558091505060019003905f5260205f2090600302015f909190919091505f820151815f015f6101000a81548173ffffffffffffffffffffffffffffffffffffffff021916908373ffffffffffffffffffffffffffffffffffffffff160217905550602082015181600101556040820151816002015f6101000a81548160ff02191690831515021790555050508160060160029054906101000a900473ffffffffffffffffffffffffffffffffffffffff1673ffffffffffffffffffffffffffffffffffffffff163373ffffffffffffffffffffffffffffffffffffffff167fe1ef32a1383be3f3cda33943e1411d85455379081194d55b243fb2335c9e2e597f0000000000000000000000000000000000000000000000000000000000000000604051611a6b919061359f565b60405180910390a360405180606001604052803373ffffffffffffffffffffffffffffffffffffffff168152602001428152602001861515815250935050505092915050565b60035481565b5f8060085f3373ffffffffffffffffffffffffffffffffffffffff1673ffffffffffffffffffffffffffffffffffffffff1681526020019081526020015f205411905090565b611b0561228d565b60045f8381526020019081526020015f20604051806101600160405290815f8201548152602001600182015481526020016002820154815260200160038201548152602001600482018054611b599061323b565b80601f0160208091040260200160405190810160405280929190818152602001828054611b859061323b565b8015611bd05780601f10611ba757610100808354040283529160200191611bd0565b820191905f5260205f20905b815481529060010190602001808311611bb357829003601f168201915b50505050508152602001600582018054611be99061323b565b80601f0160208091040260200160405190810160405280929190818152602001828054611c159061323b565b8015611c605780601f10611c3757610100808354040283529160200191611c60565b820191905f5260205f20905b815481529060010190602001808311611c4357829003601f168201915b50505050508152602001600682015f9054906101000a900460ff161515151581526020016006820160019054906101000a900460ff161515151581526020016006820160029054906101000a900473ffffffffffffffffffffffffffffffffffffffff1673ffffffffffffffffffffffffffffffffffffffff1673ffffffffffffffffffffffffffffffffffffffff168152602001600782015f9054906101000a900473ffffffffffffffffffffffffffffffffffffffff1673ffffffffffffffffffffffffffffffffffffffff1673ffffffffffffffffffffffffffffffffffffffff168152602001600882015f9054906101000a900473ffffffffffffffffffffffffffffffffffffffff1673ffffffffffffffffffffffffffffffffffffffff1673ffffffffffffffffffffffffffffffffffffffff16815250509050919050565b611dae82610a56565b611db781611fac565b611dc18383611fc7565b50505050565b5f8060075f3373ffffffffffffffffffffffffffffffffffffffff1673ffffffffffffffffffffffffffffffffffffffff1681526020019081526020015f205411905090565b5f7f01ffc9a7000000000000000000000000000000000000000000000000000000007bffffffffffffffffffffffffffffffffffffffffffffffffffffffff1916827bffffffffffffffffffffffffffffffffffffffffffffffffffffffff1916149050919050565b60025f5403611eb1576040517f3ee5aeb500000000000000000000000000000000000000000000000000000000815260040160405180910390fd5b60025f81905550565b5f611ec583836110dc565b611f99576001805f8581526020019081526020015f205f015f8473ffffffffffffffffffffffffffffffffffffffff1673ffffffffffffffffffffffffffffffffffffffff1681526020019081526020015f205f6101000a81548160ff021916908315150217905550611f36611fc0565b73ffffffffffffffffffffffffffffffffffffffff168273ffffffffffffffffffffffffffffffffffffffff16847f2f8788117e7eff1d82e926ec794901d17c78024a50270940304540a733656f0d60405160405180910390a460019050611f9d565b5f90505b92915050565b60015f81905550565b611fbd81611fb8611fc0565b61223c565b50565b5f33905090565b5f611fd283836110dc565b156120a7575f60015f8581526020019081526020015f205f015f8473ffffffffffffffffffffffffffffffffffffffff1673ffffffffffffffffffffffffffffffffffffffff1681526020019081526020015f205f6101000a81548160ff021916908315150217905550612044611fc0565b73ffffffffffffffffffffffffffffffffffffffff168273ffffffffffffffffffffffffffffffffffffffff16847ff6391f5c32d9c69d2a47ea670b442974b53935d1edc7fd64eb21e047a839171b60405160405180910390a4600190506120ab565b5f90505b92915050565b806006015f9054906101000a900460ff16806120d1575042816001015411155b1561212d576001816006015f6101000a81548160ff0219169083151502179055506040517f08c379a000000000000000000000000000000000000000000000000000000000815260040161212490613615565b60405180910390fd5b5f60055f3373ffffffffffffffffffffffffffffffffffffffff1673ffffffffffffffffffffffffffffffffffffffff1681526020019081526020015f208054806020026020016040519081016040528092919081815260200182805480156121b357602002820191905f5260205f20905b81548152602001906001019080831161219f575b505050505090505f5b8151811015612237578181815181106121d8576121d7612f81565b5b6020026020010151835f015403612224576040517f08c379a000000000000000000000000000000000000000000000000000000000815260040161221b9061367d565b60405180910390fd5b808061222f906130c6565b9150506121bc565b505050565b61224682826110dc565b6122895780826040517fe2517d3f00000000000000000000000000000000000000000000000000000000815260040161228092919061369b565b60405180910390fd5b5050565b6040518061016001604052805f81526020015f81526020015f81526020015f815260200160608152602001606081526020015f151581526020015f151581526020015f73ffffffffffffffffffffffffffffffffffffffff1681526020015f73ffffffffffffffffffffffffffffffffffffffff1681526020015f73ffffffffffffffffffffffffffffffffffffffff1681525090565b60405180606001604052805f73ffffffffffffffffffffffffffffffffffffffff1681526020015f81526020015f151581525090565b5f604051905090565b5f80fd5b5f80fd5b5f7fffffffff0000000000000000000000000000000000000000000000000000000082169050919050565b61239f8161236b565b81146123a9575f80fd5b50565b5f813590506123ba81612396565b92915050565b5f602082840312156123d5576123d4612363565b5b5f6123e2848285016123ac565b91505092915050565b5f8115159050919050565b6123ff816123eb565b82525050565b5f6020820190506124185f8301846123f6565b92915050565b5f819050919050565b6124308161241e565b82525050565b5f6020820190506124495f830184612427565b92915050565b6124588161241e565b8114612462575f80fd5b50565b5f813590506124738161244f565b92915050565b5f80fd5b5f601f19601f8301169050919050565b7f4e487b71000000000000000000000000000000000000000000000000000000005f52604160045260245ffd5b6124c38261247d565b810181811067ffffffffffffffff821117156124e2576124e161248d565b5b80604052505050565b5f6124f461235a565b905061250082826124ba565b919050565b5f67ffffffffffffffff82111561251f5761251e61248d565b5b602082029050602081019050919050565b5f80fd5b5f61254661254184612505565b6124eb565b9050808382526020820190506020840283018581111561256957612568612530565b5b835b81811015612592578061257e8882612465565b84526020840193505060208101905061256b565b5050509392505050565b5f82601f8301126125b0576125af612479565b5b81356125c0848260208601612534565b91505092915050565b5f73ffffffffffffffffffffffffffffffffffffffff82169050919050565b5f6125f2826125c9565b9050919050565b612602816125e8565b811461260c575f80fd5b50565b5f8135905061261d816125f9565b92915050565b5f805f6060848603121561263a57612639612363565b5b5f61264786828701612465565b935050602084013567ffffffffffffffff81111561266857612667612367565b5b6126748682870161259c565b92505060406126858682870161260f565b9150509250925092565b5f819050919050565b6126a18161268f565b81146126ab575f80fd5b50565b5f813590506126bc81612698565b92915050565b5f602082840312156126d7576126d6612363565b5b5f6126e4848285016126ae565b91505092915050565b6126f68161268f565b82525050565b5f60208201905061270f5f8301846126ed565b92915050565b5f806040838503121561272b5761272a612363565b5b5f612738858286016126ae565b92505060206127498582860161260f565b9150509250929050565b5f81519050919050565b5f82825260208201905092915050565b5f819050602082019050919050565b6127858161241e565b82525050565b5f81519050919050565b5f82825260208201905092915050565b5f5b838110156127c25780820151818401526020810190506127a7565b5f8484015250505050565b5f6127d78261278b565b6127e18185612795565b93506127f18185602086016127a5565b6127fa8161247d565b840191505092915050565b61280e816123eb565b82525050565b5f61281e826125c9565b9050919050565b61282e81612814565b82525050565b61283d816125e8565b82525050565b5f61016083015f8301516128595f86018261277c565b50602083015161286c602086018261277c565b50604083015161287f604086018261277c565b506060830151612892606086018261277c565b50608083015184820360808601526128aa82826127cd565b91505060a083015184820360a08601526128c482826127cd565b91505060c08301516128d960c0860182612805565b5060e08301516128ec60e0860182612805565b50610100830151612901610100860182612825565b50610120830151612916610120860182612834565b5061014083015161292b610140860182612834565b508091505092915050565b5f6129418383612843565b905092915050565b5f602082019050919050565b5f61295f82612753565b612969818561275d565b93508360208202850161297b8561276d565b805f5b858110156129b657848403895281516129978582612936565b94506129a283612949565b925060208a0199505060018101905061297e565b50829750879550505050505092915050565b5f6020820190508181035f8301526129e08184612955565b905092915050565b5f602082840312156129fd576129fc612363565b5b5f612a0a84828501612465565b91505092915050565b5f81519050919050565b5f82825260208201905092915050565b5f819050602082019050919050565b606082015f820151612a505f850182612834565b506020820151612a63602085018261277c565b506040820151612a766040850182612805565b50505050565b5f612a878383612a3c565b60608301905092915050565b5f602082019050919050565b5f612aa982612a13565b612ab38185612a1d565b9350612abe83612a2d565b805f5b83811015612aee578151612ad58882612a7c565b9750612ae083612a93565b925050600181019050612ac1565b5085935050505092915050565b5f6020820190508181035f830152612b138184612a9f565b905092915050565b5f81519050919050565b5f82825260208201905092915050565b5f819050602082019050919050565b5f612b4f838361277c565b60208301905092915050565b5f602082019050919050565b5f612b7182612b1b565b612b7b8185612b25565b9350612b8683612b35565b805f5b83811015612bb6578151612b9d8882612b44565b9750612ba883612b5b565b925050600181019050612b89565b5085935050505092915050565b5f6020820190508181035f830152612bdb8184612b67565b905092915050565b5f80fd5b5f8083601f840112612bfc57612bfb612479565b5b8235905067ffffffffffffffff811115612c1957612c18612be3565b5b602083019150836001820283011115612c3557612c34612530565b5b9250929050565b5f805f805f60608688031215612c5557612c54612363565b5b5f86013567ffffffffffffffff811115612c7257612c71612367565b5b612c7e88828901612be7565b9550955050602086013567ffffffffffffffff811115612ca157612ca0612367565b5b612cad88828901612be7565b93509350506040612cc08882890161260f565b9150509295509295909350565b5f61016083015f830151612ce35f86018261277c565b506020830151612cf6602086018261277c565b506040830151612d09604086018261277c565b506060830151612d1c606086018261277c565b5060808301518482036080860152612d3482826127cd565b91505060a083015184820360a0860152612d4e82826127cd565b91505060c0830151612d6360c0860182612805565b5060e0830151612d7660e0860182612805565b50610100830151612d8b610100860182612825565b50610120830151612da0610120860182612834565b50610140830151612db5610140860182612834565b508091505092915050565b5f6020820190508181035f830152612dd88184612ccd565b905092915050565b612de9816123eb565b8114612df3575f80fd5b50565b5f81359050612e0481612de0565b92915050565b5f8060408385031215612e2057612e1f612363565b5b5f612e2d85828601612465565b9250506020612e3e85828601612df6565b9150509250929050565b606082015f820151612e5c5f850182612834565b506020820151612e6f602085018261277c565b506040820151612e826040850182612805565b50505050565b5f606082019050612e9b5f830184612e48565b92915050565b5f82825260208201905092915050565b7f506c656173652070726f76696465206174206c65617374206f6e65204e4654005f82015250565b5f612ee5601f83612ea1565b9150612ef082612eb1565b602082019050919050565b5f6020820190508181035f830152612f1281612ed9565b9050919050565b7f4e6f7420656e6f756768204e46547300000000000000000000000000000000005f82015250565b5f612f4d600f83612ea1565b9150612f5882612f19565b602082019050919050565b5f6020820190508181035f830152612f7a81612f41565b9050919050565b7f4e487b71000000000000000000000000000000000000000000000000000000005f52603260045260245ffd5b5f81519050612fbc816125f9565b92915050565b5f60208284031215612fd757612fd6612363565b5b5f612fe484828501612fae565b91505092915050565b7f596f7520646f206e6f74206f776e2074686973204e46540000000000000000005f82015250565b5f613021601783612ea1565b915061302c82612fed565b602082019050919050565b5f6020820190508181035f83015261304e81613015565b9050919050565b61305e816125e8565b82525050565b5f6060820190506130775f830186613055565b6130846020830185613055565b6130916040830184612427565b949350505050565b7f4e487b71000000000000000000000000000000000000000000000000000000005f52601160045260245ffd5b5f6130d08261241e565b91507fffffffffffffffffffffffffffffffffffffffffffffffffffffffffffffffff820361310257613101613099565b5b600182019050919050565b5f6131178261241e565b91506131228361241e565b925082820190508082111561313a57613139613099565b5b92915050565b7f434f4e545249425554494f4e20524543454956454400000000000000000000005f82015250565b5f613174601583612ea1565b915061317f82613140565b602082019050919050565b5f60408201905061319d5f8301846126ed565b81810360208301526131ae81613168565b905092915050565b5f6131c08261278b565b6131ca8185612ea1565b93506131da8185602086016127a5565b6131e38161247d565b840191505092915050565b5f6020820190508181035f83015261320681846131b6565b905092915050565b7f4e487b71000000000000000000000000000000000000000000000000000000005f52602260045260245ffd5b5f600282049050600182168061325257607f821691505b6020821081036132655761326461320e565b5b50919050565b5f82905092915050565b5f819050815f5260205f209050919050565b5f6020601f8301049050919050565b5f82821b905092915050565b5f600883026132d17fffffffffffffffffffffffffffffffffffffffffffffffffffffffffffffffff82613296565b6132db8683613296565b95508019841693508086168417925050509392505050565b5f819050919050565b5f61331661331161330c8461241e565b6132f3565b61241e565b9050919050565b5f819050919050565b61332f836132fc565b61334361333b8261331d565b8484546132a2565b825550505050565b5f90565b61335761334b565b613362818484613326565b505050565b5b818110156133855761337a5f8261334f565b600181019050613368565b5050565b601f8211156133ca5761339b81613275565b6133a484613287565b810160208510156133b3578190505b6133c76133bf85613287565b830182613367565b50505b505050565b5f82821c905092915050565b5f6133ea5f19846008026133cf565b1980831691505092915050565b5f61340283836133db565b9150826002028217905092915050565b61341c838361326b565b67ffffffffffffffff8111156134355761343461248d565b5b61343f825461323b565b61344a828285613389565b5f601f831160018114613477575f8415613465578287013590505b61346f85826133f7565b8655506134d6565b601f19841661348586613275565b5f5b828110156134ac57848901358255600182019150602085019450602081019050613487565b868310156134c957848901356134c5601f8916826133db565b8355505b6001600288020188555050505b50505050505050565b7f50524f504f53414c2052414953454400000000000000000000000000000000005f82015250565b5f613513600f83612ea1565b915061351e826134df565b602082019050919050565b5f60408201905061353c5f8301846126ed565b818103602083015261354d81613507565b905092915050565b7f50524f504f53414c20564f5445000000000000000000000000000000000000005f82015250565b5f613589600d83612ea1565b915061359482613555565b602082019050919050565b5f6040820190506135b25f8301846126ed565b81810360208301526135c38161357d565b905092915050565b7f50726f706f73616c206475726174696f6e2065787069726564000000000000005f82015250565b5f6135ff601983612ea1565b915061360a826135cb565b602082019050919050565b5f6020820190508181035f83015261362c816135f3565b9050919050565b7f446f75626c6520766f74696e67206e6f7420616c6c6f776564000000000000005f82015250565b5f613667601983612ea1565b915061367282613633565b602082019050919050565b5f6020820190508181035f8301526136948161365b565b9050919050565b5f6040820190506136ae5f830185613055565b6136bb60208301846126ed565b939250505056fe44656e6965643a2055736572206973206e6f74206120636f6e7472696275746f7250726f706f73616c204372656174696f6e20416c6c6f77656420666f72205374616b65686f6c64657273206f6e6c79a2646970667358221220427299a4302ef9289ca4a5cc72f09dacbb966674986cacafb1dd9673ea8fcb0764736f6c63430008140033",
  "immutableReferences": {
    "4194": [
      {
        "length": 32,
        "start": 2126
      },
      {
        "length": 32,
        "start": 2257
      },
      {
        "length": 32,
        "start": 2863
      },
      {
        "length": 32,
        "start": 5238
      }
    ],
    "4199": [
      {
        "length": 32,
        "start": 1773
      },
      {
        "length": 32,
        "start": 2083
      },
      {
        "length": 32,
        "start": 2574
      },
      {
        "length": 32,
        "start": 4144
      },
      {
        "length": 32,
        "start": 4483
      },
      {
        "length": 32,
        "start": 4769
      },
      {
        "length": 32,
        "start": 6020
      },
      {
        "length": 32,
        "start": 6719
      }
    ],
    "4202": [
      {
        "length": 32,
        "start": 1892
      }
    ],
    "4205": [
      {
        "length": 32,
        "start": 5101
      }
    ]
  },
  "source": "// SPDX-License-Identifier: MIT\r\npragma solidity ^0.8.7;\r\n\r\nimport \"@openzeppelin/contracts/access/AccessControl.sol\";\r\nimport \"@openzeppelin/contracts/utils/ReentrancyGuard.sol\";\r\nimport \"@openzeppelin/contracts/token/ERC721/extensions/IERC721Enumerable.sol\";\r\n\r\ncontract DominionDAO is ReentrancyGuard, AccessControl {\r\n    bytes32 private immutable CONTRIBUTOR_ROLE = keccak256(\"CONTRIBUTOR\");\r\n    bytes32 private immutable STAKEHOLDER_ROLE = keccak256(\"STAKEHOLDER\");\r\n    uint256 immutable MIN_STAKEHOLDER_CONTRIBUTION = 1;\r\n    uint32 immutable MIN_VOTE_DURATION = 1 weeks;\r\n    uint256 totalProposals;\r\n    uint256 public daoBalance;\r\n\r\n    mapping(uint256 => ProposalStruct) private raisedProposals;\r\n    mapping(address => uint256[]) private stakeholderVotes;\r\n    mapping(uint256 => VotedStruct[]) private votedOn;\r\n    mapping(address => uint256) private contributors;\r\n    mapping(address => uint256) private stakeholders;\r\n\r\n    struct ProposalStruct {\r\n        uint256 id;\r\n        uint256 duration;\r\n        uint256 upvotes;\r\n        uint256 downvotes;\r\n        string title;\r\n        string description;\r\n        bool passed;\r\n        bool paid;\r\n        address payable beneficiary; // will this be needed?\r\n        address proposer;\r\n        address executor;\r\n    }\r\n\r\n    struct VotedStruct {\r\n        address voter;\r\n        uint256 timestamp;\r\n        bool choosen;\r\n    }\r\n\r\n    // will benefitiary be needed\r\n    event Action(\r\n        address indexed initiator,\r\n        bytes32 role,\r\n        string message,\r\n        address indexed beneficiary\r\n    );\r\n\r\n    modifier stakeholderOnly(string memory message) {\r\n        require(hasRole(STAKEHOLDER_ROLE, msg.sender), message);\r\n        _;\r\n    }\r\n\r\n    modifier contributorOnly(string memory message) {\r\n        require(hasRole(CONTRIBUTOR_ROLE, msg.sender), message);\r\n        _;\r\n    }\r\n\r\n    function createProposal(\r\n        string calldata title,\r\n        string calldata description,\r\n        address beneficiary\r\n    )external\r\n     stakeholderOnly(\"Proposal Creation Allowed for Stakeholders only\")\r\n     returns (ProposalStruct memory)\r\n    {\r\n        uint256 proposalId = totalProposals++;\r\n        ProposalStruct storage proposal = raisedProposals[proposalId];\r\n\r\n        proposal.id = proposalId;\r\n        proposal.proposer = payable(msg.sender);\r\n        proposal.title = title;\r\n        proposal.description = description;\r\n        proposal.beneficiary = payable(beneficiary);\r\n        proposal.duration = block.timestamp + MIN_VOTE_DURATION;\r\n\r\n        emit Action(\r\n            msg.sender,\r\n            CONTRIBUTOR_ROLE,\r\n            \"PROPOSAL RAISED\",\r\n            beneficiary\r\n        );\r\n\r\n        return proposal;\r\n    }\r\n\r\n    function performVote(uint256 proposalId, bool choosen)\r\n        external\r\n        stakeholderOnly(\"Unauthorized: Stakeholders only\")\r\n        returns (VotedStruct memory)\r\n    {\r\n        ProposalStruct storage proposal = raisedProposals[proposalId];\r\n\r\n        handleVoting(proposal);\r\n\r\n        // voting power added\r\n        uint256 votingPower = stakeholders[msg.sender];\r\n\r\n        if (choosen) proposal.upvotes+= votingPower;\r\n        else proposal.downvotes+= votingPower;\r\n\r\n        stakeholderVotes[msg.sender].push(proposal.id);\r\n\r\n        votedOn[proposal.id].push(\r\n            VotedStruct(\r\n                msg.sender,\r\n                block.timestamp,\r\n                choosen\r\n            )\r\n        );\r\n\r\n        emit Action(\r\n            msg.sender,\r\n            STAKEHOLDER_ROLE,\r\n            \"PROPOSAL VOTE\",\r\n            proposal.beneficiary\r\n        );\r\n\r\n        return VotedStruct(\r\n                msg.sender,\r\n                block.timestamp,\r\n                choosen\r\n            );\r\n    }\r\n\r\n    function handleVoting(ProposalStruct storage proposal) private {\r\n        if (\r\n            proposal.passed ||\r\n            proposal.duration <= block.timestamp\r\n        ) {\r\n            proposal.passed = true;\r\n            revert(\"Proposal duration expired\");\r\n        }\r\n\r\n        uint256[] memory tempVotes = stakeholderVotes[msg.sender];\r\n        for (uint256 votes = 0; votes < tempVotes.length; votes++) {\r\n            if (proposal.id == tempVotes[votes])\r\n                revert(\"Double voting not allowed\");\r\n        }\r\n    }\r\n\r\n    function contribute(uint256 numNFTs, uint256[] memory _tokenIDs, address contractNFT) external nonReentrant returns (uint256) {\r\n        require(numNFTs > 0, \"Please provide at least one NFT\");\r\n        require(numNFTs <= _tokenIDs.length, \"Not enough NFTs\");\r\n\r\n        for (uint256 i = 0; i < numNFTs; i++) {\r\n            uint256 tokenId = _tokenIDs[i];\r\n            require(IERC721(contractNFT).ownerOf(tokenId) == msg.sender, \"You do not own this NFT\");\r\n            IERC721(contractNFT).transferFrom(msg.sender, address(this), tokenId);\r\n        }  \r\n\r\n        if (!hasRole(STAKEHOLDER_ROLE, msg.sender)) {\r\n            uint256 totalContribution =\r\n                contributors[msg.sender] + numNFTs;\r\n\r\n            if (totalContribution >= MIN_STAKEHOLDER_CONTRIBUTION) {\r\n                stakeholders[msg.sender] = totalContribution;\r\n                contributors[msg.sender] += numNFTs;\r\n                _grantRole(STAKEHOLDER_ROLE, msg.sender);\r\n                _grantRole(CONTRIBUTOR_ROLE, msg.sender);\r\n            } else {\r\n                contributors[msg.sender] += numNFTs;\r\n                _grantRole(CONTRIBUTOR_ROLE, msg.sender);\r\n            }\r\n        } else {\r\n            contributors[msg.sender] += numNFTs;\r\n            stakeholders[msg.sender] += numNFTs;\r\n        }\r\n        \r\n        daoBalance += numNFTs;\r\n\r\n        emit Action(\r\n            msg.sender,\r\n            STAKEHOLDER_ROLE,\r\n            \"CONTRIBUTION RECEIVED\",\r\n            address(this)\r\n        );\r\n\r\n        return daoBalance;\r\n    }\r\n\r\n    function getProposals()\r\n        external\r\n        view\r\n        returns (ProposalStruct[] memory props)\r\n    {\r\n        props = new ProposalStruct[](totalProposals);\r\n\r\n        for (uint256 i = 0; i < totalProposals; i++) {\r\n            props[i] = raisedProposals[i];\r\n        }\r\n    }\r\n\r\n    function getProposal(uint256 proposalId)\r\n        external\r\n        view\r\n        returns (ProposalStruct memory)\r\n    {\r\n        return raisedProposals[proposalId];\r\n    }\r\n    \r\n    function getVotesOf(uint256 proposalId)\r\n        external\r\n        view\r\n        returns (VotedStruct[] memory)\r\n    {\r\n        return votedOn[proposalId];\r\n    }\r\n\r\n    function getStakeholderVotes()\r\n        external\r\n        view\r\n        stakeholderOnly(\"Unauthorized: not a stakeholder\")\r\n        returns (uint256[] memory)\r\n    {\r\n        return stakeholderVotes[msg.sender];\r\n    }\r\n\r\n    function getStakeholderBalance()\r\n        external\r\n        view\r\n        stakeholderOnly(\"Unauthorized: not a stakeholder\")\r\n        returns (uint256)\r\n    {\r\n        return stakeholders[msg.sender];\r\n    }\r\n\r\n    function isStakeholder() external view returns (bool) {\r\n        return stakeholders[msg.sender] > 0;\r\n    }\r\n\r\n    function getContributorBalance()\r\n        external\r\n        view\r\n        contributorOnly(\"Denied: User is not a contributor\")\r\n        returns (uint256)\r\n    {\r\n        return contributors[msg.sender];\r\n    }\r\n\r\n    function isContributor() external view returns (bool) {\r\n        return contributors[msg.sender] > 0;\r\n    }\r\n\r\n    function getBalance() external view returns (uint256) {\r\n        return contributors[msg.sender];\r\n    }\r\n\r\n    function payTo(\r\n        address to, \r\n        uint256 amount\r\n    ) internal returns (bool) {\r\n        (bool success,) = payable(to).call{value: amount}(\"\");\r\n        require(success, \"Payment failed\");\r\n        return true;\r\n    }\r\n}",
  "sourcePath": "C:\\Users\\anyam\\OneDrive\\Desktop\\DAO\\src\\contracts\\DominionDAO.sol",
  "compiler": {
    "name": "solc",
    "version": "0.8.20+commit.a1b79de6.Emscripten.clang"
  },
  "schemaVersion": "3.4.16",
  "updatedAt": "2024-04-11T17:51:37.669Z",
  "networkType": "ethereum",
  "devdoc": {
    "errors": {
      "AccessControlBadConfirmation()": [
        {
          "details": "The caller of a function is not the expected one. NOTE: Don't confuse with {AccessControlUnauthorizedAccount}."
        }
      ],
      "AccessControlUnauthorizedAccount(address,bytes32)": [
        {
          "details": "The `account` is missing a role."
        }
      ],
      "ReentrancyGuardReentrantCall()": [
        {
          "details": "Unauthorized reentrant call."
        }
      ]
    },
    "events": {
      "RoleAdminChanged(bytes32,bytes32,bytes32)": {
        "details": "Emitted when `newAdminRole` is set as ``role``'s admin role, replacing `previousAdminRole` `DEFAULT_ADMIN_ROLE` is the starting admin for all roles, despite {RoleAdminChanged} not being emitted signaling this."
      },
      "RoleGranted(bytes32,address,address)": {
        "details": "Emitted when `account` is granted `role`. `sender` is the account that originated the contract call, an admin role bearer except when using {AccessControl-_setupRole}."
      },
      "RoleRevoked(bytes32,address,address)": {
        "details": "Emitted when `account` is revoked `role`. `sender` is the account that originated the contract call:   - if using `revokeRole`, it is the admin role bearer   - if using `renounceRole`, it is the role bearer (i.e. `account`)"
      }
    },
    "kind": "dev",
    "methods": {
      "getRoleAdmin(bytes32)": {
        "details": "Returns the admin role that controls `role`. See {grantRole} and {revokeRole}. To change a role's admin, use {_setRoleAdmin}."
      },
      "grantRole(bytes32,address)": {
        "details": "Grants `role` to `account`. If `account` had not been already granted `role`, emits a {RoleGranted} event. Requirements: - the caller must have ``role``'s admin role. May emit a {RoleGranted} event."
      },
      "hasRole(bytes32,address)": {
        "details": "Returns `true` if `account` has been granted `role`."
      },
      "renounceRole(bytes32,address)": {
        "details": "Revokes `role` from the calling account. Roles are often managed via {grantRole} and {revokeRole}: this function's purpose is to provide a mechanism for accounts to lose their privileges if they are compromised (such as when a trusted device is misplaced). If the calling account had been revoked `role`, emits a {RoleRevoked} event. Requirements: - the caller must be `callerConfirmation`. May emit a {RoleRevoked} event."
      },
      "revokeRole(bytes32,address)": {
        "details": "Revokes `role` from `account`. If `account` had been granted `role`, emits a {RoleRevoked} event. Requirements: - the caller must have ``role``'s admin role. May emit a {RoleRevoked} event."
      },
      "supportsInterface(bytes4)": {
        "details": "See {IERC165-supportsInterface}."
      }
    },
    "version": 1
  },
  "userdoc": {
    "kind": "user",
    "methods": {},
    "version": 1
  }
}